:100000000C946C000C9494000C9494000C94E611E5
:100010000C94E6110C94E6110C9494000C9494004A
:100020000C9494000C9494000C9494000C94940000
:100030000C9494000C9494000C9494000C949400F0
:100040000C9444110C9494000C94B4110C948E11E3
:100050000C9494000C9494000C9494000C949400D0
:100060000C9494000C9494000000000024002700DD
:100070002A0000000008000201000003040700003D
:10008000000000000000000102030C0D0E0F0A0B1F
:1000900008090706050410110000000023002600CF
:1000A000290000000000250028002B00040404049F
:1000B0000404040402020202020203030303030312
:1000C00001020408102040800102040810200102EF
:1000D000040810202213431A11241FBECFEFD8E0CA
:1000E000DEBFCDBF12E0A0E0B1E0EEEBFAE302C06C
:1000F00005900D92A837B107D9F724E0A8E7B2E040
:1001000001C01D92AD3AB207E1F710E0CBE6D0E0B6
:1001100004C02197FE010E945F1ACA36D107C9F7B1
:100120000E94DE140C94521D0C9400008CBD9DBDE9
:10013000089590E0FC01EE58FF4F2491FC01E0543B
:10014000FF4F3491FC01E455FF4FE491EE23C9F0D9
:10015000222339F0233001F1A8F4213019F12230A3
:1001600029F1F0E0EE0FFF1FEE55FF4FA591B4917E
:100170008FB7F894EC91611126C030953E233C93E3
:100180008FBF08952730A9F02830C9F0243049F7EF
:10019000809180008F7D03C0809180008F77809355
:1001A0008000DFCF84B58F7784BDDBCF84B58F7DB2
:1001B000FBCF8091B0008F778093B000D2CF809139
:1001C000B0008F7DF9CF3E2BDACFCF93DF9390E055
:1001D000FC01E054FF4F249184559F4FFC01849112
:1001E0008823D1F090E0880F991FFC01E859FF4F58
:1001F000A591B491FC01EE55FF4FC591D4916111C9
:100200000EC09FB7F8948C91E22FE0958E238C93CB
:100210002881E223E8839FBFDF91CF9108958FB7B4
:10022000F894EC91E22BEC938FBFF6CF3FB7F894A4
:100230008091C6029091C702A091C802B091C902F4
:1002400026B5A89B05C02F3F19F00196A11DB11D31
:100250003FBFBA2FA92F982F8827BC01CD01620F6D
:10026000711D811D911D42E0660F771F881F991F28
:100270004A95D1F708958F929F92AF92BF92CF92F5
:10028000DF92EF92FF924B015C010E9416016B011D
:100290007C010E9416016C197D098E099F09683E38
:1002A000734081059105A8F321E0821A9108A10805
:1002B000B10888EEC80E83E0D81EE11CF11C811441
:1002C0009104A104B10429F7FF90EF90DF90CF9043
:1002D000BF90AF909F908F9008952FB7F894609142
:1002E000C2027091C3028091C4029091C5022FBFD7
:1002F0000895AF92BF92CF92DF92EF92FF920F9349
:100300001F93CF93DF936C017B018B01040F151FAB
:10031000EB015E01AE18BF08C017D10759F0699113
:10032000D601ED91FC910190F081E02DC601099577
:10033000892B79F7C501DF91CF911F910F91FF9024
:10034000EF90DF90CF90BF90AF900895FC01538D58
:10035000448D252F30E0842F90E0821B930B54179F
:1003600010F0CF96089501970895FC01918D828D2C
:10037000981761F0A28DAE0FBF2FB11D5D968C91C5
:10038000928D9F5F9F73928F90E008958FEF9FEF04
:100390000895FC01918D828D981731F0828DE80FC0
:1003A000F11D858D90E008958FEF9FEF0895FC017A
:1003B000918D228D892F90E0805C9F4F821B910947
:1003C0008F73992708958BEC92E00E94D70121E06A
:1003D000892B09F420E0822F089580E090E0892B9A
:1003E00029F00E94E30181110C9400000895FC01A2
:1003F000A48DA80FB92FB11DA35ABF4F2C91848D86
:1004000090E001968F739927848FA689B7892C93E2
:10041000A089B1898C91837080648C93938D848D35
:10042000981306C00288F389E02D80818F7D808338
:100430000895EF92FF920F931F93CF93DF93EC01F8
:1004400081E0888F9B8D8C8D98131AC0E889F9897B
:10045000808185FF15C09FB7F894EE89FF8960837E
:10046000E889F98980818370806480839FBF81E0FF
:1004700090E0DF91CF911F910F91FF90EF90089541
:10048000F62E0B8D10E00F5F1F4F0F731127E02E1C
:100490008C8D8E110CC00FB607FCFACFE889F98954
:1004A000808185FFF5CFCE010E94F701F1CFEB8D62
:1004B000EC0FFD2FF11DE35AFF4FF0829FB7F89428
:1004C0000B8FEA89FB8980818062CFCFCF93DF9346
:1004D000EC01888D8823B9F0AA89BB89E889F9895C
:1004E0008C9185FD03C0808186FD0DC00FB607FC91
:1004F000F7CF8C9185FFF2CF808185FFEDCFCE01C4
:100500000E94F701E9CFDF91CF9108952091BA02BF
:100510003091BB022817390771F49091B80280918D
:10052000B902981741F0E091B802F0E0E858FD4FA9
:10053000808190E008958FEF9FEF08950895EF92E6
:10054000FF920F931F93CF93DF93DC015C96ED90A6
:10055000FC905D97E114F10479F481E090E013964A
:100560009C938E93129790E080E0DF91CF911F9142
:100570000F91FF90EF9008955196ED91FC91529755
:1005800050968C915097982F90950FB75E962C911E
:100590005E97122F127021FD6095F894208111232F
:1005A00019F1282B2083E7012197F1F728E0462F46
:1005B00050E0308160FF1AC0382B3083E70121976B
:1005C000F1F7BA0175956795215089F7112381F0EC
:1005D0008081892380830FBF5C968D919C910197C8
:1005E000F1F781E090E0C1CF2923DCCF3923E5CFBB
:1005F0009081892BEFCF2091BA023091BB0228174E
:10060000390761F48091B9022091B80290E0805CD2
:100610009F4F821B91098F739927089590E080E086
:1006200008952091BA023091BB0228173907B9F416
:100630009091B8028091B902981789F0E091B802C0
:10064000F0E0E858FD4F80812091B80230E02F5F44
:100650003F4F2F7333272093B80290E008958FEF18
:100660009FEF089590E080E008950F931F93CF933C
:10067000DF93FC018B01EA0180819181892B31F1AB
:100680009281992349F128813981232BF9F0D801EE
:100690002D913C91D9014C918381682F691B770B77
:1006A00080819181860F971FDC014C93828181505C
:1006B000828388819981019799838883D8018D915C
:1006C0009C91119701968D939C93DACF80E0DF91F6
:1006D000CF911F910F9108958381828381E0F7CF9D
:1006E0003F924F925F926F927F928F929F92AF92C2
:1006F000BF92CF92DF92EF92FF920F931F93CF930F
:10070000DF9300D000D0CDB7DEB76C017A83698368
:100710005C834B8384E0482E360182E1680E711CB5
:1007200093E0392E5601A7E0AA0EB11C12E0552421
:1007300053944601B0E18B0E911C29813A81211519
:10074000310509F4CBC0F60180A18230F1F0A8F5A3
:10075000882309F457C0813091F7AE014F5F5F4F96
:10076000BE016D5F7F4FC5010E943503882309F4E8
:10077000B5C0D6011596ED91FC91169780819196A2
:100780008C939197818192968C93F6017682658203
:1007900030A2D60192968C919297843011F4939660
:1007A0001C92F60181A18250848325813681308795
:1007B00027838287818740A205C0833051F384302C
:1007C00009F0BDCFD60192968C919297843019F1A1
:1007D000853009F44CC0823009F073C0AE014F5F20
:1007E0005F4FBE016D5F7F4FC5010E9435038823B7
:1007F00009F474C0F601858984A3F6019682858286
:1008000010A29BCF1483858196819087878312875E
:10081000118750A2A2CFAE014F5F5F4FBE016D5F47
:100820007F4FC5010E943503882309F457C0D601C4
:1008300055968C915597833001F798968C9198979F
:100840008111DBCF93965C92939752968C9152973D
:1008500096968C93969753968C91539797968C93E4
:10086000979757968C91579795968C93C6CFAE01D4
:100870004F5F5F4FBE016D5F7F4FC5010E94350323
:10088000882361F1F60183A1882309F4B6CF828120
:100890009381009709F4B1CFDC01ED91FC910190B7
:1008A000F081E02D7401D60195960C91959797965D
:1008B0002C91979796964C91969794966C91099552
:1008C0009CCFF60185858823F9F0813041F1D6016E
:1008D0001E968D919C91892B09F48FCF0F900F90CC
:1008E0000F900F90DF91CF911F910F91FF90EF909C
:1008F000DF90CF90BF90AF909F908F907F906F9040
:100900005F904F903F90089591968C91919782506F
:10091000990B1F969C938E931E971D965C9229812E
:100920003A818B819C81782F692FF6014685578506
:100930004115510581F001962115310539F04150DD
:1009400051095787468721503109EDCF1A82198204
:100950007B836C83BCCF3A8329839C838B831586EE
:10096000B6CFCF93DF93EC018C819D81DC01ED91BB
:10097000FC910480F581E02D6E81099581E08E8FD8
:100980001E821F8E18A219A21AA21CA280E0DF915B
:10099000CF910895FC01DC01A65ABF4F8C918823AA
:1009A000A1F08781681741F0828521E030E0681767
:1009B00029F090E080E0089530E020E0C901880F40
:1009C000991F820F931FE80FF91F80859185089565
:1009D000FC018781811104C080859185892B59F0A4
:1009E0008285811106C08385948521E030E0892BC2
:1009F00021F080E0089530E020E0C901880F991FC0
:100A0000820F931FE80FF91F67835187408781E0AA
:100A100008950895DF92EF92FF920F931F93CF9363
:100A2000DF93EC0185E0E62EF12CFE01869FE00DC0
:100A3000F11D1124908596FF24C0192F177001E035
:100A400085E0D82E8FEF800F8F3008F001E0602F07
:100A500070E0062FD69EF001D79EF00D1124EC0F0A
:100A6000FD1F80858695869586958770181701F1FC
:100A70006F5F7F4F603168F38D81811302C0115029
:100A80001D8385E08E9DF0018F9DF00D1124EC0FEC
:100A9000FD1F108681E0818712862296D783C68348
:100AA000DF91CF911F910F91FF90EF90DF9008950C
:100AB000CE010E940A05C6CFFC0120812EBD9B01FC
:100AC0002150310941F051810DB407FEFDCF4EB5E3
:100AD0005EBD4193F5CF61507109860F971F0DB42C
:100AE00007FEFDCF2EB5FC0120830895FC0121E017
:100AF000613499F49C01255B3F4F61E0AC014E5F8E
:100B00005F4F1586668717865487438735962E175D
:100B10003F07B9F7FC01158208953585631729F061
:100B20002F5F35962031C9F70895622F0C940A057E
:100B3000CF93DF93FC0167FD12C0283080F444237B
:100B400019F08581873059F0EF01A1E0B0E08D8583
:100B5000882349F111962596A031B105C1F780E0AF
:100B600018C085E08A9FE0018B9FD00D1124CE0F25
:100B7000DF1F442389F081E4888785818F5F858327
:100B800025E02A9FC0012B9F900D1124E80FF91F2B
:100B90008085DF91CF91089581E08887F1CF27701C
:100BA000687B622B0FC06623E1F26770660F660FE9
:100BB000660F4423A1F3606485818F5F858387700E
:100BC000687F682B25E02A9FC0012B9F900D112480
:100BD000E80FF91F6087862FDCCFFC0121E061114F
:100BE00002C0069608953585631739F02F5F359654
:100BF0002031C9F790E080E00895069635E0239F04
:100C0000800D911D11240895FC018FE78283838359
:100C100084838583168217821086DF01DE961D92FB
:100C20001D921C9212971186128684A1806884A35B
:100C300080A5806880A785A5806885A781A9806830
:100C400081AB86A9806886AB82AD806882AF88E080
:100C5000868386AF13968C91807F8C931B961C9213
:100C600017971C9211971C9214961C9211971C9224
:100C700011971C9214961C9211971C92E55BFF4FE2
:100C800010820895009709F455C08331910509F445
:100C900051C08130910509F44FC08431910509F4A8
:100CA0004BC08230910509F449C08531910509F4A2
:100CB00045C08330910509F443C08631910509F49C
:100CC0003FC088309105F1F19C0127513109223054
:100CD0003105C0F19C012F7E29303105A9F18A3000
:100CE0009105A1F18B30910599F18E30910591F12B
:100CF0008F30910589F18C30910581F18D3091050E
:100D000079F18430910571F18530910569F1863072
:100D1000910561F18730910559F18031910551F1CB
:100D20008131910549F18A31910531F1429731F1D3
:100D30008FEF089580E0089581E0089582E008959E
:100D400083E0089584E0089585E0089586E008959D
:100D500087E0089588E0089589E008958AE008957D
:100D60008BE008958CE008958DE008958EE008955D
:100D70008FE0089580E1089581E1089582E108956A
:100D8000CF93DF93EC010E944206823158F4843005
:100D900044F5C130D10599F038F0C230D105B9F031
:100DA0002397D1F080E008C09091ED039F7081E01F
:100DB000973011F09230B0F7DF91CF910895909174
:100DC000ED039F70915081E09330B0F3EBCF9091A1
:100DD000ED039F709350F7CF9091ED039F70955066
:100DE000F2CFE82F880FFF0BEA57FF4FE491809175
:100DF000ED039091EE03A091EF03B0E004C0B6952F
:100E0000A79597958795EA95D2F78170D5CF2A98BF
:100E100008952A9A08956C34754061F4443C554015
:100E200059F0FC01E55AFF4F81E0208131812C3CD3
:100E3000394019F080E0089581E00895CF93DF9361
:100E4000FC01E35AFF4F208131812C343540C1F43D
:100E5000329720813181243C45E0340719F02C3C45
:100E6000394071F4EC01815A9F4F0E940406FE0143
:100E7000E455FF4F0190F081E02D309729F009955E
:100E800080E0DF91CF910895FE01EB55FF4F108276
:100E90003196108231968FEF8083C655DF4F81E007
:100EA0008883EECFEF92FF920F93FC01368D3230A4
:100EB00018F0348D361302C00E945E120F91FF901D
:100EC000EF900895EF92FF920F9302970E945207BE
:100ED0000F91FF90EF9008950895EF92FF920F9376
:100EE0001F93422F202F8701DC01ED91FC9100A080
:100EF000F1A1E02D09951F910F91FF90EF900895BA
:100F000081E00895FC0184A10895FC018681089583
:100F100080E0089581E0089580E0089580E00895DC
:100F2000089580E0089508950F931F93CF93DF9362
:100F3000D82FC62F8A0180E591E00E9496000E947A
:100F40000707D260DEBDF8018C2F882339F00DB47D
:100F500007FEFDCF91919EBD8150F7CFC00FD12FDD
:100F6000D11D0DB407FEFDCF0E940907CE01DF9110
:100F7000CF911F910F9108950F931F93CF93DF93FC
:100F800000D0CDB7DEB7182F062F80E591E00E9484
:100F900096000E940707126019830A8362E070E0DE
:100FA000CE0101960E945C050E9409070F900F90E8
:100FB000DF91CF911F910F9108958EBD00000DB468
:100FC00007FEFDCF8EB50895CF93C82F80E591E041
:100FD0000E9496000E9407078C2F0E94DD0780E088
:100FE0000E94DD07C82F0E9409078C2FCF9108951A
:100FF0002F923F924F925F926F927F928F929F9229
:10100000AF92BF92CF92DF92EF92FF920F931F9316
:10101000CF93DF9300D000D01F92CDB7DEB79D8372
:101020008C834B017A016901FC0111818FEF810FE3
:10103000803408F0CBC00E946D012B013C01F8E820
:101040004F0EF3E15F1E611C711CEC81FD818281FA
:1010500060E480FD60E888EE0E94BC07312C812F9F
:1010600090E09A838983E114F10409F48BC009812B
:101070001A81E016F10608F487010B83A601602FA0
:1010800080E10E949407602F88E30E94BC07EC81F6
:10109000FD816081606280EF0E94BC0788EC0E9445
:1010A000E40787FFFBCF60E888EC0E94BC0788EF6D
:1010B0000E94E4078F70382EB12CA12C212C3320F4
:1010C00001F10E946D01641975098609970997FF5E
:1010D00018C0F6E03F1609F440C02EE03216B1F019
:1010E00084E0381209C09FEFA91AB90A811491044B
:1010F00089F0A814B90471F460E088E30E94BC0789
:1011000043C0E01AF10AC00ED11EADCF2394E3E034
:101110002E1691F360E088E30E94BC07F60160811F
:1011200080E10E94BC076B8188E30E94BC07EC81D0
:10113000FD816081606280EF0E94BC0788EC0E94A4
:10114000E40787FFFBCF60E888EC0E94BC0788EFCC
:101150000E94E4078F70382EB2CF88EF0E94E40718
:1011600085FB882780F9F1E08F27EC81FD81928152
:1011700080FB90F9928360E490FD60E888EE0E9425
:10118000BC07C8CF3110B8CF88EF0E94E407EC81CC
:10119000FD81928185FB90F99283832D0F900F90B2
:1011A0000F900F900F90DF91CF911F910F91FF90B3
:1011B000EF90DF90CF90BF90AF909F908F907F90F7
:1011C0006F905F904F903F902F9008958AED382E4A
:1011D000E4CFAF92BF92CF92DF92EF92FF920F9344
:1011E0001F93CF93DF93EC01B62EA42E69010E94CA
:1011F000ED057C0186EDE114F10409F447C0D70147
:10120000ED91FC91119787ED309709F43FC013964B
:101210009C9180E0981731F02081A21629F0339636
:101220008F5FF8CFF0E0E0E0D601ED93FC938BED1B
:10123000309761F1228126952695203108F02FE024
:1012400081E090E0A0E0B0E004C0880F991FAA1FE1
:10125000BB1F2A95D2F70197F801918380836B2DEC
:1012600080EE0E94BC0788ED0E94E407D701149627
:101270009C91682F697F992329F0CA58DF4F6881B4
:101280006260682B88ED0E94BC0780E0DF91CF91FF
:101290001F910F91FF90EF90DF90CF90BF90AF9094
:1012A00008958F929F92AF92BF92CF92DF92EF926A
:1012B000FF920F931F93CF93DF93882E962E5A01A0
:1012C0000E946D016B017C0128E8C20E23E1D21E51
:1012D000E11CF11C10E000E0D0E0C0E098280E9482
:1012E0006D016C197D098E099F0997FF1EC0692D3C
:1012F00080EF0E94BC070E946D016C197D098E0968
:101300009F0997FF09C088EC0E94E40787FFF3CF8D
:1013100060E888EC0E94BC0788EF0E94E407C82FB1
:10132000CF70C43081F0CE30B9F08C2FDF91CF91E7
:101330001F910F91FF90EF90DF90CF90BF90AF90F3
:101340009F908F9008950F5F1F4FA114B10439F241
:101350000A151B0521F6E9CFDF5FD33009F0BFCFB7
:10136000E4CF88EF0E94E407807C8034B1F018F469
:10137000882301F10895803819F0803CC9F0089560
:1013800088ED0E94E40781FD0DC069EC88ED0E94A4
:10139000BC0782E08093CA02089588ED0E94E407AA
:1013A00081FDF3CF6BEC88ED0E94BC0783E0F2CFA8
:1013B00081E0F0CF61ED88ED0E94BC071092CA0277
:1013C0000895CF92DF92FF920F931F93CF93DF93F5
:1013D000F62E01E0C82FD0E0CC0FDD1FC457DB4F45
:1013E0006E0188819981DC01ED91FC910280F3818D
:1013F000E02D2F2D40E060E00995182F803E49F543
:1014000061E088EE0E94BC0766E670E080E090E054
:101410000E943B01F60180819181DC01ED91FC91FC
:101420000190F081E02D2F2D40E060E00995182F0C
:101430008D3041F58FEF800F833088F061E088EECA
:101440000E94BC0766E670E080E090E00E943B01ED
:1014500010C08D3061F48FEF800F833050F464E65C
:1014600070E080E090E00E943B010F5FBACF8823DC
:1014700089F2812FDF91CF911F910F91FF90DF9023
:10148000CF9008958823A9F3D9CFFC0101900020C3
:10149000E9F73197AF01481B590BBC018BEC92E087
:1014A0000C9479010C94450A2F923F924F925F92CF
:1014B0006F927F928F929F92AF92BF92CF92DF9264
:1014C000EF92FF920F931F93CF93DF937B013A012B
:1014D0006901F901A080B180FB013180F90111821D
:1014E0001082FB01828160E181FD60E288EE0E9452
:1014F000BC072A2CA301F701608180E00E945109FA
:10150000582EF6E08F1310C088EF0E94E407F70111
:1015100092819D7F84FF9260928360E191FD60E201
:1015200088EE0E94BC07E6CF811150C088EC0E9473
:10153000E40782FF5FC080E30E94E407482E8A151B
:101540001B0411F008F0422CF60180819181E50125
:10155000C81BD90BD7FF02C0D0E0C0E0842C912C6F
:101560008C169D060CF4E40180E591E00E94960043
:101570000E94070788E00E94DD07AE0170E060E08E
:10158000C8010E94731A209721F0BE01C8010E9471
:101590005C050C0F1D1F0E94090764E088EC0E9487
:1015A000BC07F60180819181880E991E918280820C
:1015B000431420F08A149B0408F49CCF88EF0E9407
:1015C000E407F701928184FB91F99283852DDF91E5
:1015D000CF911F910F91FF90EF90DF90CF90BF9030
:1015E000AF909F908F907F906F905F904F903F90C3
:1015F0002F90089580EF582EE9CF2F923F924F926F
:101600005F926F927F928F929F92AF92BF92CF9292
:10161000DF92EF92FF920F931F93CF93DF93CDB79B
:10162000DEB760970FB6F894DEBF0FBECDBF3C01AA
:10163000542E422E302E2E2CEDA0FEA0188A1F868E
:101640001E861D868E01035F1F4F9E01215F3F4F47
:1016500040E00E94E908182F81117EC059824A8219
:101660003B822C82DE82CD82B886AF82AE014F5F94
:101670005F4F68E080E20E9494074D855E8560E0E0
:1016800080E10E945109182F811166C0E114F10414
:1016900009F44EC0EF85F889828157FE4FC0826001
:1016A0008283650144244394C114D10409F474C0B5
:1016B0009C868B864D855E856F85788987019E0126
:1016C000255F3F4FC3010E94540A182F863071F4E2
:1016D00088EF0E94E407EF85F88985FB882780F969
:1016E0008425928180FB91F99283DECF811134C0F1
:1016F0008FA198A50097A1F06B857C85DC01ED9109
:10170000FC9111970190F081E02DC5018C199D0984
:101710009A8789879E01275F3F4FA701CD010995D1
:101720008B859C85C81AD90A8815990508F0BCCF05
:101730004D855E8557FE2AC080EA29C0816082837C
:101740006D857E859701A401CF010E94F807182FAF
:101750004D855E858823D1F0812F60960FB6F89471
:10176000DEBF0FBECDBFDF91CF911F910F91FF90D4
:10177000EF90DF90CF90BF90AF909F908F907F9031
:101780006F905F904F903F902F90089580E860E0B9
:101790000E945109182FE0CF1111DECF4D855E85D3
:1017A000CBCF8F929F92AF92BF92CF92DF92EF9268
:1017B0000F93CF931F921F921F921F92912C812CF7
:1017C000B12CA12CD12CC12CE12C062F25E040E01E
:1017D00060E00E94FD0AC82F6CE271E080E090E0BA
:1017E0000E943B010F900F900F900F908C2FCF9184
:1017F0000F91EF90DF90CF90BF90AF909F908F9020
:1018000008958F929F92AF92BF92CF92DF92EF9204
:101810000F931F921F923F932F934A015A01D12C8D
:10182000C12CEE24E39400E026E040E80E94FD0A8B
:101830000F900F900F900F900F91EF90DF90CF903F
:10184000BF90AF909F908F9008952F923F924F92AC
:101850005F926F927F928F929F92AF92BF92CF9240
:10186000DF92EF92FF920F931F93CF93DF93CDB749
:10187000DEB7C258D1090FB6F894DEBF0FBECDBF98
:10188000DC0116963C9119ED311114C0B22EA42E34
:10189000162F3C01FC01E480F580D701ED91FC910D
:1018A0000190F081E02D60E0C70109952C010097BF
:1018B000E1F416ED812FCE57DF4F0FB6F894DEBF5F
:1018C0000FBECDBFDF91CF911F910F91FF90EF9091
:1018D000DF90CF90BF90AF909F908F907F906F9050
:1018E0005F904F903F902F900895FC01C080D18071
:1018F000C114D10409F4DDC11301F5E22F0E311C2E
:10190000DC0111963C922E921496BC929E012659AF
:101910003F4F48E050E060E0F301848195810E94F0
:10192000010C082F8111C9C1AB960FADAB97D20145
:10193000CD92DC92D701ED91FC910280F381E02DF4
:101940002A2D40E0612FC7010995F301868314ED2C
:10195000882309F4AFCFE2969FADE29796A3682F54
:10196000848195810E94D10B182FD701ED91FC91B4
:10197000D20114961C92882359F00480F581E02D41
:10198000D30116966C91C7010995F301168292CF87
:101990000190F081E02DD30116966C91C701099555
:1019A000009709F486CFFC01B48201111CC0E496B3
:1019B0008EAD9FADE497F301E35AFF4F918380838F
:1019C000E6968EAD9FADE697329791838083D301E3
:1019D00014968D919C91159716960C9121143104B3
:1019E000E9F408ED11C0033108F002E1402F50E0A6
:1019F0009E0126593F4FF3016681848195810E94A3
:101A0000010C082F882399F2D301ED91FC910480F9
:101A1000F581E02DC3010995102F4CCF602F0E9456
:101A2000ED05FC01892B09F440C1EC968FADEC97D4
:101A3000C058DF4F8883C058D04002833182208253
:101A400081E083832E0191E4490E511CD30112964B
:101A5000CF57DF4FB983A883C158D040F2017096A9
:101A6000EE96FFAFEEAFEE97C058DF4FF881C0584B
:101A7000D0401F1709F49DC0E4E0F1E0D2011196B7
:101A8000FC93EE93CF57DF4F88819981C158D040A6
:101A900013969C938E93129714961C9214971996F2
:101AA0001C9219971A961C921A971D961C921D97B4
:101AB0001F961C921E921E9790961C92909791963C
:101AC0001C92919792961C92929798961C92989736
:101AD000EE96EEADFFADEE971696FC93EE9315974E
:101AE0001896FC93EE9317971C96FC93EE931B9716
:101AF000D30114960D90BC91A02DC258DF4FB9832D
:101B0000A883CE57D040F301F6801F921F9281E048
:101B100090E08C0F9D1F9F938F9359E0852E912C01
:101B200069E0A62EB12CD12CC12C72E0E72E012F3A
:101B300026E040E86F2DC258DF4F88819981CE574B
:101B4000D0400E94FD0A082F0F900F900F900F9029
:101B500081115ACFAB80BC80450191E4A916B10434
:101B600018F040E4842E912C5F924F92A1E0B0E0F7
:101B7000AC0FBD1FBF93AF93D12CC12C32E0E32E2D
:101B8000012F26E040E86F2DC258DF4F88819981F0
:101B9000CE57D0400E94FD0A082F0F900F900F9053
:101BA0000F90811131CFF301868D823010F41F5FC9
:101BB0005BCFD3015E961C915E97123008F47BC018
:101BC00016960C911697602F14968D919C910E94F9
:101BD000ED05FC01892B21F00283318220821383E1
:101BE0001F921F921F921F92912C812CB12CA12C1D
:101BF000D12CC12CE12CF301048D29E040E0668159
:101C0000848195810E94FD0A182F0F900F900F90EC
:101C10000F9081114CC0F12CD3015D968C915D9792
:101C2000F816C0F58F2D90E0FC017296EE0FFF1FA5
:101C3000EE0FFF1FE60DF71D2081211102C0F39466
:101C4000EBCFFC01EE0FFF1FEE0FFF1FE60DF71DA0
:101C5000EA5BFF4F80818770C82ED12C1F921F92A4
:101C60001F921F92912C812CB12CA12CE12C00E011
:101C70002AE041E2F3016681848195810E94FD0A98
:101C8000082F0F900F900F900F908823C1F285308E
:101C9000B1F2BACEED91FC910688F789E02DC3012F
:101CA000099581E0F30184A305CE06EDADCE082FA2
:101CB000ABCE17EDFFCD11EDFDCDF201D182C0828B
:101CC000A3CEAF92BF92CF92DF92EF92FF920F938B
:101CD0001F93CF93DF9300D000D0CDB7DEB77C0148
:101CE000690158011C821B821A8219828E010F5FC2
:101CF0001F4F9E012D5F3F4F0E94E908811109C0CF
:101D000049815A816B817C8185019601C7010E94BE
:101D1000540A0F900F900F900F90DF91CF911F9169
:101D20000F91FF90EF90DF90CF90BF90AF9008950C
:101D30004F925F926F927F928F929F92AF92BF92DB
:101D4000CF92DF92EF92FF920F931F93CF93DF9387
:101D5000CDB7DEB7C254D1090FB6F894DEBF0FBEBF
:101D6000CDBFDC0194962C9121111AC0612C862DD7
:101D7000CE5BDF4F0FB6F894DEBF0FBECDBFDF9155
:101D8000CF911F910F91FF90EF90DF90CF90BF9078
:101D9000AF909F908F907F906F905F904F9008953D
:101DA0007C010E946D01F701878C90A0A1A0B2A0D8
:101DB000681979098A099B0997FDD8CF0E946D019E
:101DC000D70193962C91620F711D811D911DF70112
:101DD000678F70A381A392A3712C6E01F1E4CF0EE3
:101DE000D11C30E4832E912C57018AE5A80EB11C3A
:101DF000D7015D968C91781608F0B8CFE72DF0E00A
:101E00007296EE0FFF1FEE0FFF1FEE0DFF1D80817C
:101E1000E82FF0E0CF01880F991FDC01AE0FBF1F44
:101E2000AE0DBF1D96962C9130E0D6012D933C93BC
:101E3000DE0111962D011D92AC15BD05E1F7E80FED
:101E4000F91FEE0DFF1D8201960145A1F701668184
:101E5000848195810E94610E682E811188CFD60100
:101E60008D919C9111978134910510F08D929C92E7
:101E7000D701ED91FC9100A0F1A1E02D8201D601E6
:101E80002C91D5014C91B701C7010995D701ED916E
:101E9000FC910288F389E02DD5018C918111698034
:101EA000662DC7010995009769F0DC01ED91FC9161
:101EB0000190F081E02D8201D6012C91D5014C9149
:101EC000B7010995739494CF3F924F925F926F92AE
:101ED0007F928F929F92AF92BF92CF92DF92EF92BA
:101EE000FF920F931F93CF93DF93CDB7DEB7C2540A
:101EF000D1090FB6F894DEBF0FBECDBFDC019496BA
:101F00002C91222309F4A1C06C010E946D01F601FD
:101F1000878C90A0A1A0B2A0681979098A099B09B1
:101F200097FD93C00E946D01D60193962C91620F8C
:101F3000711D811D911DF601678F70A381A392A36E
:101F4000312C5E01F1E4AF0EB11C46018AE5880E2A
:101F5000911CD6015D968C91381608F076C0E32D61
:101F6000F0E07296EE0FFF1FEE0FFF1FEC0DFD1D50
:101F70006080662009F467C0712C7301EE0CFF1CB1
:101F8000F701E60DF71DEC0DFD1D86A190E0F501B2
:101F900091838083FE0131962F011192EA15FB0592
:101FA000E1F7F701E60DF71DEC0DFD1D820195012E
:101FB00045A1D60116966C91169714968D919C9119
:101FC0000E94610E182F81113EC0F5018081918120
:101FD0000097C9F18134910520F080E490E091836D
:101FE0008083E60CF71CD601AE0DBF1DF601808183
:101FF0009181FC01608C718C7201F5010081F4010A
:10200000208195964C91B601C601F3010995D60140
:10201000ED91FC910288F389E02DD4018C9181111E
:102020001981612FC6010995009769F0DC01ED91D6
:10203000FC910190F081E02D8201D5012C91D40119
:102040004C91B6010995339484CF80E0CE5BDF4F8D
:102050000FB6F894DEBF0FBECDBFDF91CF911F91B9
:102060000F91FF90EF90DF90CF90BF90AF909F9037
:102070008F907F906F905F904F903F9008950F9357
:102080001F93CF93DF93CDB7DEB7A4970FB6F89425
:10209000DEBF0FBECDBF8C01FB01CE0103962EE14A
:1020A000DC011D922A95E9F785E089838FEF8A8309
:1020B00081818D8380818E8382818F8383818887D4
:1020C0008481898785818A8786818B871782F80139
:1020D0008481958143A566811CA21BA21AA219A224
:1020E0008E010F5D1F4F9E012D5D3F4F0E94E9083D
:1020F00081110BC069A17AA19E012F5F3F4F40E281
:1021000050E08BA19CA10E94F807A4960FB6F8940A
:10211000DEBF0FBECDBFDF91CF911F910F9108950C
:102120008F5591090C943F100E94651ACF92DF924F
:10213000EF920F931F93CF93DF93FC01E35AFF4F6E
:10214000408151814C34554009F096C0329740810E
:102150005181443CA5E05A0721F04C3C594009F01C
:102160008BC0B801422FEC01223008F45CC001158D
:10217000110509F458C0F8018081813009F06DC063
:10218000CE018F599F4F41504D3308F04CE350E042
:102190006F5F7F4F0E946A1A9E01215A3F4FD901FB
:1021A0001696CD90DD90EC90A901425C5F4FFA014C
:1021B00080819181A281C816D906EA06A1F13396E1
:1021C00080959095A0958C219D21AE21808391834F
:1021D000A283DA01CD92DD92EC92D90116969C9100
:1021E0009F7081E0973019F0923008F080E02FEF77
:1021F000290F233008F482602DEF290F233008F4D3
:1022000084609550933008F48860DE01A555BF4F77
:102210009C91981741F0909598239F702081207F82
:10222000922B90838C93CE01815A9F4FFE01E655ED
:10223000FF4F2081222301F1BE016D557F4FDC014C
:10224000ED91FC910190F081E02DDF91CF911F91F4
:102250000F91EF90DF90CF900994813169F4243091
:1022600058F0CE018F599F4F43504D3308F04CE347
:1022700050E06D5F7F4F8ECFDF91CF911F910F9117
:10228000EF90DF90CF9008951F920F920FB60F92AC
:1022900011242F933F938F939F93AF93BF9380917C
:1022A000C2029091C302A091C402B091C5023091C4
:1022B000C10223E0230F2D3758F50196A11DB11D52
:1022C0002093C1028093C2029093C302A093C402E0
:1022D000B093C5028091C6029091C702A091C80236
:1022E000B091C9020196A11DB11D8093C6029093C1
:1022F000C702A093C802B093C902BF91AF919F914A
:102300008F913F912F910F900FBE0F901F901895B6
:1023100026E8230F0296A11DB11DD2CF1F920F9266
:102320000FB60F9211242F933F934F935F936F93A8
:102330007F938F939F93AF93BF93EF93FF938BEC18
:1023400092E00E94F701FF91EF91BF91AF919F91B1
:102350008F917F916F915F914F913F912F910F904E
:102360000FBE0F901F9018951F920F920FB60F92ED
:1023700011242F938F939F93EF93FF93E091DB02B0
:10238000F091DC028081E091E102F091E20282FDB5
:102390001BC090818091E4028F5F8F732091E502D2
:1023A000821741F0E091E402F0E0E553FD4F958F94
:1023B0008093E402FF91EF919F918F912F910F9065
:1023C0000FBE0F901F9018958081F4CF1F920F922F
:1023D0000FB60F9211242F933F934F935F936F93F8
:1023E0007F938F939F93AF93BF93EF93FF93E0916E
:1023F000BA02F091BB02309749F0A685B785858572
:10240000968D91FF14C09C918923A1F4FF91EF91C7
:10241000BF91AF919F918F917F916F915F914F91FC
:102420003F912F910F900FBE0F901F9018959C9188
:10243000892361F7A389B4899C9185898095892333
:102440008C93868997890197F1F7608D718DA685A8
:10245000B785558538E020E0CB010197F1F7822F51
:1024600090E095958795282F4C91452309F0206899
:10247000315091F7868D81FD20958091B90290E0D1
:1024800001968F7399273091B802381799F0A0916F
:10249000B902B0E0A858BD4F2C938093B902828D49
:1024A000938D0197F1F7A389B4898C919589892B34
:1024B0008C93ACCF868D8160868FF1CF6F927F92A7
:1024C0008F929F92AF92BF92CF92DF92EF92FF9244
:1024D0000F931F93CF93DF93EC01842F6C8F4D8D5F
:1024E00070E060E0A82EB12C822E912C602E712C11
:1024F000641770F56530710559F1DB01AA0FBB1F38
:10250000AA0FBB1FFE01EA0FFB1FEA5BFF4F908182
:10251000392F37703A151B0409F087C0392F3695CB
:102520003695369537703815190409F07EC09295A6
:102530009695969593709615170409F076C06E01DE
:1025400096E4C90ED11CCA0EDB1EC114D104F9F4E5
:10255000453008F05BC0A4E04A9FA00111246E0141
:10256000B6E4CB0ED11CC40ED51E2770220F220F4D
:10257000220F982F9770292B902F9295990F990FD2
:10258000907C292BF60120839D8D9F5F9D8FD70125
:1025900013969C911397937010E0933029F4129640
:1025A0009C9112E097FD11E0402F682FE881F9819E
:1025B000068CF78DE02DCE010995882339F1112382
:1025C00029F18E8D8B3010F5282F30E0F901EE0FB8
:1025D000FF1FE20FF31FEC0FFD1FD70112969C9116
:1025E00012979F7095A314969C91149796A394E0CC
:1025F00097A3C10ED11CF601818316968C919BA1E5
:10260000981708F48BA38E8D8F5F8E8FDF91CF91FB
:102610001F910F91FF90EF90DF90CF90BF90AF9000
:102620009F908F907F906F9008956F5F7F4F60CFE6
:10263000EF92FF920F9302970E945E120F91FF900C
:10264000EF900895CF93DF931092CE021092CD02B7
:1026500088EE93E0A0E0B0E08093CF029093D002A8
:10266000A093D102B093D2028AE091E09093CC0281
:102670008093CB0285EC90E09093D8028093D702B0
:1026800084EC90E09093DA028093D90280EC90E0A1
:102690009093DC028093DB0281EC90E09093DE0269
:1026A0008093DD0282EC90E09093E0028093DF0261
:1026B00086EC90E09093E2028093E1021092E402B3
:1026C0001092E5021092E6021092E7028EEB91E082
:1026D000909337048093360410923E0481E08093F7
:1026E0003F041092400488E394E090933D0480936B
:1026F0003C041092380488E0809339048CE3809382
:102700003A0410923B04E6E3F4E021E088E394E02D
:1027100015862687178694878387359634E0E138B7
:10272000F307B1F71092AC0481E18093680386E36C
:1027300094E090938D0380938C0384E391E09093D5
:1027400089038093880388E591E090938B038093BD
:102750008A031092A7031092A8031092A903109263
:10276000AA031092AB031092AC031092E2031092F2
:102770008F03109291031092900310929203109283
:102780009403109293031092950310929703109262
:1027900096031092980310929A0310929903109244
:1027A0009B0310929D0310929C0310929E03109223
:1027B000A00310929F031092A1031092A303109202
:1027C000A203EFECF3E090E080E0DC01AA0FBB1F76
:1027D000AA0FBB1FA253BC4F2C9128732C931082BD
:1027E0001182019634968530910579F7A8E8B3E017
:1027F00090E080E095961C929597382F28E0811103
:1028000020E096962C939697FC01EE0FFF1FEF01A8
:10281000C80FD91FC155DC4F28812E7F2D7F2883FB
:102820003111C4C03FE0E80FF91FE155FC4F330FF1
:10283000330F20812370232B2083019613968B3036
:102840009105C1F681E08093A6031092A503109232
:10285000A403ECE8F4E090E080E021913191232B97
:1028600009F0A6C0880F991FFC01E457FB4F88E8C8
:1028700093E0918380838EE591E090938903809328
:10288000880384E891E090938B0380938A038EE21F
:1028900091E09093E8038093E70387EE93E00E9432
:1028A00004068AE891E0909389038093880382EB81
:1028B00091E090938B0380938A0388EB91E090934F
:1028C000E8038093E70387EE93E00E9404061092EA
:1028D0006C0310926B0388EE93E0A0E0B0E080936D
:1028E0006D0390936E03A0936F03B09370038CE11C
:1028F00091E090936A038093690310928003109291
:102900007F0310928203109281031092840310922D
:1029100083031092860310928503609187036E7F74
:102920006D7F609387036695617081E0682786E01C
:102930000E94990061E086E00E94E500E6ECF0E08C
:10294000E491E0937903E2EBF0E0E491F0E0EE0F44
:10295000FF1FEE55FF4F8591949190937B038093D9
:102960007A0360E087E00E94E5008091870381FDA3
:1029700004C061E087E00E94990087E080937503BE
:10298000E7ECF0E0E491E0937603E3EBF0E0E49130
:10299000F0E0EE0FFF1FE856FF4F85919491909362
:1029A000780380937703DF91CF91089531E03BCF97
:1029B00001968031910509F050CF5DCFCF93DF9321
:1029C000CDB7DEB7C957D1090FB6F894DEBF0FBE39
:1029D000CDBF789484B5826084BD84B5816084BDA8
:1029E00085B5826085BD85B5816085BD80916E00AD
:1029F000816080936E0010928100809181008260DE
:102A0000809381008091810081608093810080911A
:102A100080008160809380008091B1008460809309
:102A2000B1008091B00081608093B00080917A0005
:102A3000846080937A0080917A00826080937A002B
:102A400080917A00816080937A0080917A0080681A
:102A500080937A001092C100E091DB02F091DC02D9
:102A600082E08083E091D702F091D8021082E09159
:102A7000D902F091DA0283E380831092E302E091BD
:102A8000DF02F091E00286E08083E091DD02F091C8
:102A9000DE02808180618083E091DD02F091DE02C0
:102AA000808188608083E091DD02F091DE02808188
:102AB00080688083E091DD02F091DE0280818F7D6D
:102AC00080831092840310928303109282031092E9
:102AD00081031092800310927F0385E690E090932B
:102AE00086038093850390917503963108F047C063
:102AF00021E230E03093800320937F0323E630E02F
:102B0000309382032093810322E430E030938403E6
:102B1000209383032091680084E0983048F031E0EE
:102B20009E3008F430E081E001C0880F3A95EAF762
:102B3000822B809368002DE630E0983050F02BE631
:102B400030E09E3030F02CE630E0963110F030E08E
:102B500020E030937D0320937C03292F30E09830D0
:102B600008F0E2C081E001C0880F9A95EAF78093EF
:102B70007E0380918503909186030197F1F7809100
:102B8000830390918403892B49F1E091BA02F0917B
:102B9000BB0223E0E936F20709F1309739F0A38947
:102BA000B4899C918589809589238C938091870332
:102BB0008E7F809387031092B9021092B80289E643
:102BC00093E09093BB028093BA02E0917C03F09172
:102BD0007D03808190917E03892B8083229A0E94BD
:102BE00009071FB7F8948091BC02811127C0E6EB5A
:102BF000F0E08491EAECF0E09491E82FF0E0EE0F41
:102C0000FF1FE859FF4FA591B491EC91E92321F4FE
:102C100061E08AE00E94990061E08AE00E94E5009C
:102C20008CB580618CBD8CB580648CBD61E08DE01D
:102C30000E94E50061E08BE00E94E5008091BC020B
:102C40008F5F8093BC021FBF229A0E9409072198C0
:102C500068E188E80E94BC0760E288E70E94BC0740
:102C600060E088E70E94BC0710E000E088E60E9470
:102C7000E4070F5F1F4F80FF64C061EC88ED0E9486
:102C8000BC0760E680ED0E94BC0764E088EE0E940D
:102C9000BC0788EE0E94E40782FFFBCF0E94B109C7
:102CA00060E288EC0E94BC0761E080E80E94BC07FB
:102CB0008E010B591F4F1E019EE6290E311CDE01AD
:102CC00011963D01F8013896E896FFAFEEAFE89710
:102CD000C8010996EA969FAF8EAFEA97D801E9E05E
:102CE0001D92EA95E9F783B1F82FF270FF2E81FD6E
:102CF0000DC088EC0E94E40785FF04C00E94B10962
:102D000090E2F92E6F2D88EC0E94BC078091CA02D8
:102D1000813009F46EC008F470C08230B9F083309D
:102D200009F475C0F12C29C09E3040F428503109B7
:102D300081E001C0880F2A95EAF719CF2E5031099A
:102D4000F7CF0F3F100709F091CFFFCFF12C809103
:102D50006803807F803189F40E946D0168537F4F42
:102D60008F4F9F4F6093BD027093BE028093BF024E
:102D70009093C00280E2809368038CE8C82E84E0C0
:102D8000D82E5601D5018D919D915D01009739F0A6
:102D9000DC01ED91FC910680F781E02D0995ECEACC
:102DA000F4E0EA15FB0571F780916803803409F4BB
:102DB00092C080F5803209F478C0803309F485C070
:102DC000813109F045C01092AC04D6018D919D91DE
:102DD0006D01009739F0DC01ED91FC910480F581E3
:102DE000E02D0995CA14DB0481F782E18093680322
:102DF0002FC023E12093680395CF80916803807FE3
:102E0000803109F48FCF81E1809368038BCFFF2459
:102E1000F3949DCF813509F46DC0803809F47DC0ED
:102E20008035B1F488EC0E94E40786FF11C081E58B
:102E3000809368030E946D016C5E7F4F8F4F9F4FA0
:102E40006093BD027093BE028093BF029093C00254
:102E50008091AC038823A1F08091E5039091E60373
:102E60008C34954069F48091E3039091E403843CB1
:102E700025E0920709F45CC18C3C994009F458C1E3
:102E800084EC91E00E94450A82ED91E00E94450A9F
:102E900080E090E0892B09F421CF0E94E301882390
:102EA00009F41CCF0E94000019CF0E946D01C09050
:102EB000BD02D090BE02E090BF02F090C0026C193B
:102EC0007D098E099F0997FDC3CF61E088EE0E94BE
:102ED000BC0780E48BCF88EE0E94E40780FDB8CF6A
:102EE00088ED0E94E407682F686088ED0E94BC07A7
:102EF00080E57CCF0E946D018090BD029090BE0263
:102F0000A090BF02B090C002681979098A099B0994
:102F100097FD9ECF80E880936803F101108288E0DE
:102F200081838CE38283A0903C04B0903D04309276
:102F30003D0420923C04F0924004930142E150E0B1
:102F400060E086E394E00E94010CE82EB0923D041C
:102F5000A0923C0481115BC089849A848B859C85F6
:102F6000E5969FAF8EAFE5979D81E6969FAFE6977A
:102F70004E80ACE8B4E0E396BFAFAEAFE397512C20
:102F8000E396EEADFFADE39781919191E396FFAFAC
:102F9000EEAFE3970097E9F55394F0E15F12F0CFBD
:102FA000F601819191916F01009709F07EC0E39441
:102FB000F0E1EF12F5CF80913C0490913D04892B14
:102FC00009F461C0F092400420E040E060E086E354
:102FD00094E00E949805D82E882309F454C0682FE5
:102FE00086E394E00E94ED05009709F44CC0FC01D3
:102FF000F4826D2D86E394E00E94D10BE82E8823A5
:1030000009F494C06D2D86E394E00E9476058E2D20
:1030100037C0DC01ED91FC910084F185E02D09952C
:103020008111BACFE396AEACBFACE397F5019291B4
:1030300082915F01DC01ED91FC910088F189E02D26
:10304000642D0995882309F4A7CFF501808191812A
:10305000DC01ED91FC910484F585E02DE5964EAD03
:103060005FADE597B4010995882379F06F2D852D23
:103070000E94E109813D09F48FCF882309F456C0ED
:10308000823D09F4E5CE80EAB1CEF50180819181DF
:10309000DC01ED91FC910684F785E02DE6966FAD9D
:1030A000E69709958111E2CF77CFDC01ED91FC9194
:1030B0000084F185E02D0995811179CFF601929177
:1030C00082915F01DC01ED91FC910088F189E02D96
:1030D000642D0995811109C06F2D8E2D0E94E10983
:1030E000982F977F913D49F662CFF50180819181BC
:1030F000DC01ED91FC910484F585E02DE5964EAD63
:103100005FADE597B4010995811151CFF50180813B
:103110009181DC01ED91FC910684F785E02DE69626
:103120006FADE69709958823B9F241CF80E95ECE6D
:10313000D090E903F801D082C090EA03C182B09038
:10314000EB03B282A090EC03A3828EE090E00E9499
:103150004206823140F4F090F003883029F0F0907C
:10316000F103893009F0F12CD8011496FC928FE01C
:1031700090E00E944206823140F4E090F0038830F3
:1031800029F0E090F103893009F0E12CF801E582A3
:1031900084E090E00E94C006882321F081E0D801FD
:1031A00016968C9385E090E00E94C006882321F05B
:1031B000F80186818260868386E090E00E94C006E6
:1031C000882339F0D80116968C911697846016964C
:1031D0008C9387E090E00E94C006882321F0F801DC
:1031E00086818860868390E080E00E94C006882304
:1031F00039F0D80116968C911697806116968C93AB
:1032000081E090E00E94C006882321F0F8018681C9
:103210008062868382E090E00E94C006882339F0B5
:10322000D80116968C911697806416968C9383E03D
:1032300090E00E94C006882321F0F8018681806812
:1032400086838CE090E00E94C006882321F081E014
:10325000D80117968C938AE090E00E94C0068823DC
:1032600021F0F8018781826087838DE090E00E94E1
:10327000C006882339F0D80117968C91179784607F
:1032800017968C938BE090E00E94C006882321F073
:10329000F80187818860878388E190E00E94C006FA
:1032A000882339F0D80117968C911797806117966B
:1032B0008C9389E190E00E94C006882321F0F801F8
:1032C00087818062878380E190E00E94C006882326
:1032D00039F0D80117968C911797806417968C93C4
:1032E0008AE190E00E94C006882321F0F8018781DE
:1032F0008068878384E6D3011D928A95E9F71F923F
:10330000EF921F92FF921F92AF921F92BF921F9255
:10331000CF921F92DF92E5EDF1E0FF93EF937F9262
:103320006F920E947A1AC3010E94520A80E092E0D2
:103330000E94520AD8011696FC900FB6F894DEBF90
:103340000FBECDBFF0FE04C081E192E00E94520AA0
:10335000F1FE04C08BE192E00E94520AF2FE04C02A
:1033600083E292E00E94520AF3FE04C08AE292E0F5
:103370000E94520AF4FE04C082E392E00E94520AC4
:10338000F5FE04C086E392E00E94520AF6FE04C0F5
:103390008DE392E00E94520AF7FE04C083E492E0BB
:1033A0000E94520AD8011796FC90F0FE04C089E4EE
:1033B00092E00E94520AF1FE04C08DE492E00E9465
:1033C000520AF2FE04C081E592E00E94520AF3FE26
:1033D00004C085E592E00E94520AF4FE04C089E52B
:1033E00092E00E94520AF5FE04C080E692E00E943C
:1033F000520AF6FE04C089E692E00E94520AF7FEE5
:1034000004C08DE692E00E94520A82ED91E00E9493
:10341000450A7801F8019191D80118968C91189776
:10342000890F18968C93E8968EAD9FADE897E817B4
:10343000F90789F76FEA89E693E00E949F02D701B6
:103440006D917D0189E693E00E949F02EA96EEADC0
:10345000FFADEA97EE15FF0591F76DEE89E693E073
:103460000E949F026DE089E693E00E949F026AE05D
:1034700089E693E00E949F0268E070E080E090E0BF
:103480000E943B0105CD8CE191E090936A0380930B
:1034900069038091BA029091BB028956934071F4FE
:1034A000E0917C03F0917D03908180917E03809573
:1034B000892380831092BB021092BA020895EE0F06
:1034C000FF1F0590F491E02D099481E090E0F894BD
:1034D0000C94521DFB01DC0102C001900D92415081
:1034E0005040D8F70895DC0101C06D934150504021
:1034F000E0F70895AEE0B0E0E0E8FAE10C94291DB1
:103500000D891E8986E08C831A8309838FEF9FE7DC
:103510009E838D83AE01475E5F4F6F89788DCE01AC
:1035200001960E949D1A2F813885020F131FF80102
:1035300010822E96E4E00C94451DABE0B0E0E3EA87
:10354000FAE10C941B1D7C013B018A01FC011782EE
:103550001682838181FFC8C1CE0101965C01F7010B
:103560009381F30193FD859193FF81913F0188231E
:1035700009F453C1853239F493FD859193FF81910C
:103580003F01853229F4B70190E00E948D1CE7CFFE
:10359000912C212C312CFFE1F31538F08B3211F1F5
:1035A00090F4803209F1833229F137FC3CC020EDE0
:1035B000280F2A3050F536FE20C08AE0989E200D54
:1035C0001124922E06C08D3291F0803371F76894E9
:1035D00030F8F30193FD859193FF81913F018111B3
:1035E000DACF21C0689431F8689432F8F2CF689449
:1035F00033F8EFCF689434F8ECCFEAE02E9E200D3C
:103600001124222E689435F8E4CF8E3229F436FC4A
:1036100004C1689436F8DDCF8C3619F4689437F815
:10362000D8CF8836B1F2982F9F7D95549330E0F033
:103630008336A1F18337C1F1833509F063C02801D6
:10364000F2E04F0E511CF801C080D180692D70E06E
:1036500036FC02C06FEF7FEFC6010E94771C4C0161
:10366000689437F882010AC00C5F1F4FFFE3F983AB
:1036700088248394912C6501E89437F833FE2DC09B
:10368000522C8114910471F5552009F468CFB701CB
:1036900080E290E00E948D1C5A94F6CFF801808160
:1036A00089830E5F1F4FE4CF2801F2E04F0E511CBB
:1036B000F801C080D180692D70E036FC02C06FEF48
:1036C0007FEFC6010E94821C4C018201D5CFB70159
:1036D00080E290E00E948D1C2A942814190409F0BD
:1036E000B0F7CECFF60137FC859137FE81916F019F
:1036F000B70190E00E948D1C51105A94F1E08F1A8E
:103700009108BFCF843619F0893609F077C0F801E7
:1037100037FE6BC060817181828193810C5F1F4F86
:10372000F32DFF763F2E97FF09C0909580957095F9
:1037300061957F4F8F4F9F4F689437F82AE030E0B4
:10374000A5010E94BD1CC82ECA188C2C432C36FE25
:103750000CC0E89440F8C91440F434FE05C032FCB3
:1037600003C0F32DFE7E4F2E892C44FE95C0FE0132
:10377000EC0DF11D8081803309F087C0242D297E56
:10378000422E842D8870582E43FC95C040FE8FC079
:103790009C2C821418F42C0C922C981844FE91C086
:1037A000B70180E390E00E948D1C42FE09C088E7CB
:1037B00090E041FE02C088E590E0B7010E948D1CB8
:1037C000C91408F48AC0CA94D12C9FEFC91AD90A27
:1037D000CA0CDB1CF60182916F01B70190E00E94D8
:1037E0008D1CAC14BD04B1F74FCF60817181072EE1
:1037F000000C880B990B0E5F1F4F92CFD32CE894CF
:10380000D4F82AE030E0853739F1232D297FD22EF4
:103810008F3601F148F48835A9F0F7018681978148
:103820002B96E2E10C94371D803749F08837A9F7D1
:10383000D4FE02C06894D2F820E130E00DC0689454
:10384000D4F8F6CF34FE03C0822F8660D82E20E154
:1038500032E002C028E030E0F801D7FE0FC06081FE
:103860007181828193810C5F1F4FA5010E94BD1C55
:10387000C82ECA183D2CE89437F867CF6081718153
:1038800090E080E00E5F1F4FF0CF42FC02C08394B7
:1038900078CF8394839475CF842D867809F471CF83
:1038A000F6CFB70180E290E00E948D1C83948214D1
:1038B000C0F3512C73CF522C5818821408F46ECFD9
:1038C000F8CF842D867809F47BCF8BE241FE80E22D
:1038D00047FC8DE2B70190E071CFB70180E390E043
:1038E0000E948D1C9A946CCF8FEF9FEF99CFFC01B3
:1038F0000590615070400110D8F7809590958E0F1B
:103900009F1F0895FC016150704001900110D8F78D
:10391000809590958E0F9F1F08950F931F93CF93BF
:10392000DF93182F092FEB018B8181FD09C01FEF59
:103930000FEF812F902FDF91CF911F910F9108955D
:1039400082FF14C02E813F818C819D812817390709
:103950003CF4E881F981CF01019699838883108333
:103960008E819F8101969F838E83E3CFE885F985C1
:10397000812F0995892BA1F3DACFFA01AA272830E4
:1039800051F1203181F1E8946F936E7F6E5F7F4F2C
:103990008F4F9F4FAF4FB1E03ED0B4E03CD0670FA8
:1039A000781F891F9A1FA11D680F791F8A1F911DFB
:1039B000A11D6A0F711D811D911DA11D20D009F44B
:1039C00068943F912AE0269F11243019305D31938D
:1039D000DEF6CF010895462F4770405D4193B3E076
:1039E0000FD0C9F7F6CF462F4F70405D4A3318F01D
:1039F000495D31FD4052419302D0A9F7EACFB4E0CE
:103A0000A6959795879577956795BA95C9F7009785
:103A10006105710508959B01AC010A2E0694579526
:103A2000479537952795BA95C9F7620F731F841F7D
:103A3000951FA01D08952F923F924F925F926F9213
:103A40007F928F929F92AF92BF92CF92DF92EF922E
:103A5000FF920F931F93CF93DF93CDB7DEB7CA1BAF
:103A6000DB0B0FB6F894DEBF0FBECDBF09942A88DA
:103A7000398848885F846E847D848C849B84AA8482
:103A8000B984C884DF80EE80FD800C811B81AA810F
:103A9000B981CE0FD11D0FB6F894DEBF0FBECDBFDA
:103AA000ED01089510E0CBE6D0E004C0FE010E94D5
:0E3AB0005F1A2196CC36D107C9F7F894FFCFE4
:103ABE000000000070030000000019027901A60149
:103ACE006602D701B501C901000000009F0279010D
:103ADE0032039E02FB0211038602000000009410C6
:103AEE0000000000250C9107B104640F85079007B4
:103AFE008E078C078A07CA04E8048807090582071F
:103B0E005E129410FEFF0000181300000000250C3A
:103B1E009107B104980E850790078E078C078A07C8
:103B2E00CA04E80488076D078207520780076C07EE
:103B3E00FEFF0000620700000000250C9107B10493
:103B4E00980E850790070B078C078A07CA04E804AE
:103B5E001E076D0782075207800796103F10FEFF63
:103B6E0000006207A1FF0000901000000000ED05AC
:103B7E00980576056E6F7420636F6E6E656374655F
:103B8E0064000D0A004C583A253364204C593A25EE
:103B9E0033642052583A2533642052593A253364FF
:103BAE00204C323A2533642052323A2533642000B9
:103BBE005072657373656420427574746F6E3A202B
:103BCE0000545249414E474C452000434952434C04
:103BDE0045200043524F53532000535155415245F7
:103BEE0020005550200052494748542000444F575A
:103BFE004E20004C45465420004C3120004C3320C2
:103C0E0000523120005233200053484152452000CB
:103C1E004F5054494F4E53200050532000544F558F
:083C2E0043485041442000000E
:00000001FF
