:100000000C94C3000C94EB000C94EB000C943C1883
:100010000C943C180C943C180C94EB000C94EB00E2
:100020000C94EB000C94EB000C94EB000C94EB00A4
:100030000C94EB000C94EB000C94EB000C94EB0094
:100040000C949A170C94EB000C940A180C94E41777
:100050000C94EB000C94EB000C94EB000C94EB0074
:100060000C94EB000C94EB000001020408090A0C4C
:100070000D0E0F00000000000000000000FF271020
:100080000032FF27100032FF27100032FF27100038
:10009000320000000000000000000000000000002E
:1000A0000000001718191A000000001B1C1D1E1F5D
:1000B00020212200000F00000000240027002A0059
:1000C0000000000800020100000304070000000017
:1000D00000000000000102030C0D0E0F0A0B0809BE
:1000E00007060504101112000102030C0D0E0F0A81
:1000F0000B0809070605041011100000002000007D
:100100000040000000800000000100000008000026
:1001100000020000000400000000010000000200D6
:100120000000040000000800000010000000200093
:1001300000004000000080000000000100000008F6
:10014000000000100000000000230026002900002D
:10015000000000250028002B00040404040404040B
:100160000402020202020203030303030301020466
:100170000810204080010204081020010204081029
:1001800020007819732211241FBECFEFD8E0DEBF04
:10019000CDBF12E0A0E0B1E0EEE1FBE402C00590CB
:1001A0000D92A43FB107D9F726E0A4EFB2E001C059
:1001B0001D92AA39B207E1F710E0C2ECD0E004C00A
:1001C0002197FE010E948F22C13CD107C9F70E94EE
:1001D000131B0C9482250C9400008CBD9DBD0895CA
:1001E000CF93DF93FC0184E096E0958384838AE0DB
:1001F00091E0918380838EE291E093838283178ED6
:1002000010A211A212A213A214A2DF01A65ABF4F7C
:100210001C92178211861086128614861386158604
:1002200017861686108A128A118A138A158A148AEA
:10023000168A108E178A118E138E128EEF01C95BEB
:10024000DF4F90E080E0DC01AA0FBB1FAA0FBB1FAD
:10025000AE0FBF1FAA5BBF4F2C9128732C9318823F
:100260001982019624968530910569F7EF0190E097
:1002700080E01DA2582F28E0811120E02EA3BC01B0
:10028000660F771F9B01280F391F2E0F3F1FD901C3
:1002900097964C9197974E7F4D7F97964C933FE062
:1002A000511131E0DB01A80FB91FAE0FBF1F330F93
:1002B000330F97962C9197972370232B97962C9317
:1002C000019623968B309105A1F681E0868F158EDD
:1002D000148EAAE5B6E090E080E02D913D91232BAD
:1002E00051F4880F991FDC01A65AB94FED93FC9386
:1002F000DF91CF91089501968031910571F7F8CF84
:1003000090E0FC01E054FF4F2491FC01E359FE4FC3
:100310003491FC01E75AFE4FE491EE23C9F0222309
:1003200039F0233001F1A8F4213019F1223029F1FC
:10033000F0E0EE0FFF1FE15BFE4FA591B4918FB788
:10034000F894EC91611126C030953E233C938FBF09
:1003500008952730A9F02830C9F0243049F780915A
:1003600080008F7D03C0809180008F778093800014
:10037000DFCF84B58F7784BDDBCF84B58F7DFBCF96
:100380008091B0008F778093B000D2CF8091B00081
:100390008F7DF9CF3E2BDACFCF93DF9390E0FC0136
:1003A000E359FE4F2491875A9E4FFC018491882384
:1003B000D1F090E0880F991FFC01EA54FF4FA591FE
:1003C000B491FC01E15BFE4FC591D49161110EC067
:1003D0009FB7F8948C91E22FE0958E238C9328811F
:1003E000E223E8839FBFDF91CF9108958FB7F89400
:1003F000EC91E22BEC938FBFF6CF3FB7F89480914E
:100400005C0390915D03A0915E03B0915F0326B5FC
:10041000A89B05C02F3F19F00196A11DB11D3FBF3C
:10042000BA2FA92F982F8827BC01CD01620F711D0B
:10043000811D911D42E0660F771F881F991F4A9505
:10044000D1F708958F929F92AF92BF92CF92DF9291
:10045000EF92FF924B015C010E94FD016B017C0158
:100460000E94FD016C197D098E099F09683E734049
:1004700081059105A8F321E0821A9108A108B1082D
:1004800088EEC80E83E0D81EE11CF11C8114910493
:10049000A104B10429F7FF90EF90DF90CF90BF90B7
:1004A000AF909F908F9008952FB7F8946091580364
:1004B0007091590380915A0390915B032FBF089567
:1004C000AF92BF92CF92DF92EF92FF920F931F9362
:1004D000CF93DF936C017B018B01040F151FEB01A0
:1004E0005E01AE18BF08C017D10759F06991D60157
:1004F000ED91FC910190F081E02DC6010995892BC9
:1005000079F7C501DF91CF911F910F91FF90EF9087
:10051000DF90CF90BF90AF900895FC01538D448D34
:10052000252F30E0842F90E0821B930B541710F09E
:10053000CF96089501970895FC01918D828D9817AB
:1005400061F0A28DAE0FBF2FB11D5D968C91928D83
:100550009F5F9F73928F90E008958FEF9FEF0895B4
:10056000FC01918D828D981731F0828DE80FF11D7D
:10057000858D90E008958FEF9FEF0895FC01918D98
:10058000228D892F90E0805C9F4F821B91098F7391
:100590009927089581E693E00E94BE0221E0892B0D
:1005A00009F420E0822F089580E090E0892B29F063
:1005B0000E94CA0281110C9400000895FC01A48DD0
:1005C000A80FB92FB11DA35ABF4F2C91848D90E075
:1005D00001968F739927848FA689B7892C93A08958
:1005E000B1898C91837080648C93938D848D9813E2
:1005F00006C00288F389E02D80818F7D8083089575
:10060000EF92FF920F931F93CF93DF93EC0181E062
:10061000888F9B8D8C8D98131AC0E889F989808109
:1006200085FF15C09FB7F894EE89FF896083E8893C
:10063000F98980818370806480839FBF81E090E02E
:10064000DF91CF911F910F91FF90EF900895F62EBB
:100650000B8D10E00F5F1F4F0F731127E02E8C8D55
:100660008E110CC00FB607FCFACFE889F98980819A
:1006700085FFF5CFCE010E94DE02F1CFEB8DEC0FAE
:10068000FD2FF11DE35AFF4FF0829FB7F8940B8FB7
:10069000EA89FB8980818062CFCFCF93DF93EC0121
:1006A000888D8823B9F0AA89BB89E889F9898C915A
:1006B00085FD03C0808186FD0DC00FB607FCF7CF16
:1006C0008C9185FFF2CF808185FFEDCFCE010E9416
:1006D000DE02E9CFDF91CF9108952091360330916A
:1006E00037032817390771F490913403809135034B
:1006F000981741F0E0913403F0E0EC50FD4F808119
:1007000090E008958FEF9FEF08950895EF92FF9284
:100710000F931F93CF93DF93DC015C96ED90FC90D9
:100720005D97E114F10479F481E090E013969C93D5
:100730008E93129790E080E0DF91CF911F910F91FF
:10074000FF90EF9008955196ED91FC91529750963D
:100750008C915097982F90950FB75E962C915E973D
:10076000122F127021FD6095F8942081112319F148
:10077000282B2083E7012197F1F728E0462F50E04E
:10078000308160FF1AC0382B3083E7012197F1F7E1
:10079000BA0175956795215089F7112381F0808101
:1007A000892380830FBF5C968D919C910197F1F70F
:1007B00081E090E0C1CF2923DCCF3923E5CF9081C0
:1007C000892BEFCF20913603309137032817390753
:1007D00061F4809135032091340390E0805C9F4F59
:1007E000821B91098F739927089590E080E0089506
:1007F000209136033091370328173907B9F49091C7
:10080000340380913503981789F0E0913403F0E0C8
:10081000EC50FD4F80812091340330E02F5F3F4F3B
:100820002F7333272093340390E008958FEF9FEFC9
:10083000089590E080E008950F931F93CF93DF9386
:10084000FC018B01EA0180819181892B31F1928138
:10085000992349F128813981232BF9F0D8012D9171
:100860003C91D9014C918381682F691B770B808162
:100870009181860F971FDC014C9382818150828386
:1008800088819981019799838883D8018D919C9162
:10089000119701968D939C93DACF80E0DF91CF91F1
:1008A0001F910F9108958381828381E0F7CF3F925A
:1008B0004F925F926F927F928F929F92AF92BF9270
:1008C000CF92DF92EF92FF920F931F93CF93DF931C
:1008D00000D000D0CDB7DEB76C017A8369835C832A
:1008E0004B8384E0482E360182E1680E711C93E050
:1008F000392E5601A7E0AA0EB11C12E055245394DC
:100900004601B0E18B0E911C29813A8121153105F8
:1009100009F4CBC0F60180A18230F1F0A8F588235C
:1009200009F457C0813091F7AE014F5F5F4FBE01B0
:100930006D5F7F4FC5010E941C04882309F4B5C078
:10094000D6011596ED91FC911697808191968C9326
:100950009197818192968C93F6017682658230A27E
:10096000D60192968C919297843011F493961C92B2
:10097000F60181A1825084832581368130872783C7
:100980008287818740A205C0833051F3843009F00B
:10099000BDCFD60192968C919297843019F1853013
:1009A00009F44CC0823009F073C0AE014F5F5F4F55
:1009B000BE016D5F7F4FC5010E941C04882309F4AE
:1009C00074C0F601858984A3F6019682858210A2FF
:1009D0009BCF1483858196819087878312871187A7
:1009E00050A2A2CFAE014F5F5F4FBE016D5F7F4F40
:1009F000C5010E941C04882309F457C0D6015596EE
:100A00008C915597833001F798968C919897811126
:100A1000DBCF93965C92939752968C9152979696D1
:100A20008C93969753968C91539797968C93979710
:100A300057968C91579795968C93C6CFAE014F5F82
:100A40005F4FBE016D5F7F4FC5010E941C0488236C
:100A500061F1F60183A1882309F4B6CF82819381E5
:100A6000009709F4B1CFDC01ED91FC910190F08188
:100A7000E02D7401D60195960C91959797962C913F
:100A8000979796964C91969794966C9109959CCFD2
:100A9000F60185858823F9F0813041F1D6011E9653
:100AA0008D919C91892B09F48FCF0F900F900F900F
:100AB0000F90DF91CF911F910F91FF90EF90DF90FA
:100AC000CF90BF90AF909F908F907F906F905F90EE
:100AD0004F903F90089591968C9191978250990BE9
:100AE0001F969C938E931E971D965C9229813A8146
:100AF0008B819C81782F692FF6014685578541159A
:100B0000510581F001962115310539F04150510907
:100B10005787468721503109EDCF1A8219827B838E
:100B20006C83BCCF3A8329839C838B831586B6CF95
:100B3000CF93DF93EC018C819D81DC01ED91FC91E1
:100B40000480F581E02D6E81099581E08E8F1E82F3
:100B50001F8E18A219A21AA21CA280E0DF91CF91C9
:100B60000895FC01DC01A65ABF4F8C918823A1F0A7
:100B70008781681741F0828521E030E0681729F00D
:100B800090E080E0089530E020E0C901880F991FCF
:100B9000820F931FE80FF91F808591850895FC014E
:100BA0008781811104C080859185892B59F08285C8
:100BB000811106C08385948521E030E0892B21F0E6
:100BC00080E0089530E020E0C901880F991F820F6E
:100BD000931FE80FF91F67835187408781E00895CD
:100BE0000895DF92EF92FF920F931F93CF93DF93BD
:100BF000EC0185E0E62EF12CFE01869FE00DF11D53
:100C00001124908596FF24C0192F177001E085E00C
:100C1000D82E8FEF800F8F3008F001E0602F70E04A
:100C2000062FD69EF001D79EF00D1124EC0FFD1F6C
:100C300080858695869586958770181701F16F5F78
:100C40007F4F603168F38D81811302C011501D8385
:100C500085E08E9DF0018F9DF00D1124EC0FFD1F9E
:100C6000108681E0818712862296D783C683DF9122
:100C7000CF911F910F91FF90EF90DF900895CE01DB
:100C80000E94F105C6CFFC0120812EBD9B012150A1
:100C9000310941F051810DB407FEFDCF4EB55EBD67
:100CA0004193F5CF61507109860F971F0DB407FE70
:100CB000FDCF2EB5FC0120830895FC0121E06134B5
:100CC00099F49C01255B3F4F61E0AC014E5F5F4FA3
:100CD0001586668717865487438735962E173F07F4
:100CE000B9F7FC01158208953585631729F02F5F48
:100CF00035962031C9F70895622F0C94F105CF93F2
:100D0000DF93FC0167FD12C0283080F4442319F002
:100D10008581873059F0EF01A1E0B0E08D8588230F
:100D200049F111962596A031B105C1F780E018C0B0
:100D300085E08A9FE0018B9FD00D1124CE0FDF1F2D
:100D4000442389F081E4888785818F5F858325E04E
:100D50002A9FC0012B9F900D1124E80FF91F808559
:100D6000DF91CF91089581E08887F1CF2770687B6C
:100D7000622B0FC06623E1F26770660F660F660F85
:100D80004423A1F3606485818F5F85838770687FCA
:100D9000682B25E02A9FC0012B9F900D1124E80F9E
:100DA000F91F6087862FDCCFFC0121E0611102C0B2
:100DB000069608953585631739F02F5F35962031F3
:100DC000C9F790E080E00895069635E0239F800DF6
:100DD000911D112408950F931F93CF93DF93211535
:100DE000310599F0E901042F162F0E94D406FC0169
:100DF00086ED309729F01283D183C083038380E08E
:100E0000DF91CF911F910F91089588EDF9CFDC010B
:100E1000FB018C91823069F030F4813051F0108206
:100E2000118212820FC0863281F08C3FC1F780831D
:100E300009C0808311968C911197818312968C91B1
:100E40001297828317961C920895808311968C9135
:100E500011978095818312968C911297882311F0B7
:100E600082E0828313968C911397848314968C91DD
:100E70001497858315968C911597868316968C9179
:100E80001697869511F08187DDCF81E0FCCFFC01BC
:100E90008FE7828B838B848B858B118E128E138EC2
:100EA00012AE13AE14AE168A178A82A9806882AB7E
:100EB00086A9806886AB88E0818F82AF85AD807F10
:100EC00085AFDF01A75BBF4F1C921282118612868D
:100ED000118A18971C9211971C9212961C921196C7
:100EE0001C9211961C9213961C9211971C921197AA
:100EF0001C92E85BFF4F10820895FC018FE782830C
:100F0000838384838583168217821086DF01DE96B1
:100F10001D921D921C9212971186128684A18068E0
:100F200084A380A5806880A785A5806885A781A9FE
:100F3000806881AB86A9806886AB82AD806882AF0D
:100F400088E0868386AF13968C91807F8C931B9666
:100F50001C9217971C9211971C9214961C92119731
:100F60001C9211971C9214961C9211971C92E55B8F
:100F7000FF4F10820895CF93DF93EC011A821B82FA
:100F80001C828D819E81DC01ED91FC910480F581B4
:100F9000E02D6F8109951F821B8A80E0DF91CF9140
:100FA00008956C34754061F4483692E0590751F069
:100FB0004F3284E0580731F081E0453D534019F04D
:100FC00080E0089581E00895FC0183890895FC0183
:100FD00087810895009709F45CC08331910509F475
:100FE00058C08130910509F456C08431910509F447
:100FF00052C08230910509F450C08531910509F441
:101000004CC08330910509F44AC08631910509F43A
:1010100046C08830910509F444C09C01275131092C
:1010200022303105F0F18B319105D9F19C012F7EF1
:1010300029303105C1F18A309105B9F18B30910524
:10104000B1F18E309105A9F18F309105A1F18C306D
:10105000910599F18D30910591F18430910589F1D7
:101060008530910581F18630910579F187309105C0
:1010700071F18031910569F18131910561F18A3118
:10108000910549F18231910541F14C9731F18FEF92
:10109000089580E0089581E0089582E0089583E056
:1010A000089584E0089585E0089586E0089587E036
:1010B000089588E0089589E008958AE008958BE016
:1010C00008958CE008958DE008958EE008958FE0F6
:1010D000089580E1089581E1089582E10895CF9314
:1010E000DF93EC010E94EA07833158F4843044F521
:1010F000C130D10599F038F0C230D105B9F023974D
:10110000D1F080E008C0909177049F7081E0973023
:1011100011F09230B0F7DF91CF910895909177045C
:101120009F70915081E09330B0F3EBCF90917704B2
:101130009F709350F7CF909177049F709550F2CFA6
:10114000E82F880FFF0BEC52FF4FE491809177045A
:1011500090917804A0917904B0E004C0B695A79569
:1011600097958795EA95D2F78170D5CF0E94EA07C7
:101170008331D8F494E08902F0011124E750FF4F45
:101180004591559165917491809172059091730587
:10119000A0917405B091750584239523A623B723E8
:1011A00021E0892B8A2B8B2B09F420E0822F0895D4
:1011B000CF93DF93EC010E94EA07823158F4843028
:1011C00044F5C130D10599F038F0C230D105B9F0FD
:1011D0002397D1F080E008C0909111059F7081E0C5
:1011E000973011F09230B0F7DF91CF910895909140
:1011F00011059F70915081E09330B0F3EBCF909147
:1012000011059F709350F7CF909111059F709550E5
:10121000F2CFE82F880FFF0BE951FF4FE491809147
:10122000110590911205A0911305B0E004C0B69588
:10123000A79597958795EA95D2F78170D5CF2A988B
:1012400008952A9A08956C34754021F481E0463E51
:101250005C4009F080E00895CF93DF93FC01E35AEE
:10126000FF4F208131812C343540A1F43297208109
:101270003181263E3C4071F4EC01815A9F4F0E941F
:101280004707FE01E555FF4F0190F081E02D3097B3
:1012900029F0099580E0DF91CF910895FE01EC558A
:1012A000FF4F8FEF80833196108231961082C9559F
:1012B000DF4F81E08883EECF6C34754061F4443CAD
:1012C000554059F0FC01E55AFF4F81E02081318102
:1012D0002C3C394019F080E0089581E00895CF93C7
:1012E000DF93FC01E35AFF4F208131812C343540DC
:1012F000C1F4329720813181243C45E0340719F054
:101300002C3C394071F4EC01815A9F4F0E947D07BB
:10131000FE01E455FF4F0190F081E02D309729F058
:10132000099580E0DF91CF910895FE01EB55FF4FC5
:1013300010823196108231968FEF8083C655DF4F31
:1013400081E08883EECFEF92FF920F93FC01368D00
:10135000323018F0348D361302C00E94B4180F9149
:10136000FF90EF900895EF92FF920F9302970E94E3
:10137000A3090F91FF90EF9008950895EF92FF92C7
:101380000F931F93422F202F8701DC01ED91FC91D9
:1013900000A0F1A1E02D09951F910F91FF90EF9012
:1013A000089581E00895FC0184A10895FC018681DF
:1013B000089580E0089581E0089580E0089580E038
:1013C0000895089580E0089508950F931F93CF9393
:1013D000DF93D82FC62F8A0180E591E00E94ED00AF
:1013E0000E941F09D260DEBDF8018C2F882339F0DE
:1013F0000DB407FEFDCF91919EBD8150F7CFC00F78
:10140000D12FD11D0DB407FEFDCF0E942109CE01C1
:10141000DF91CF911F910F9108950F931F93CF9359
:10142000DF9300D0CDB7DEB7182F062F80E591E00F
:101430000E94ED000E941F09126019830A8362E076
:1014400070E0CE0101960E9443060E9421090F9090
:101450000F90DF91CF911F910F9108958EBD0000E5
:101460000DB407FEFDCF8EB50895CF93C82F80E54C
:1014700091E00E94ED000E941F098C2F0E942E0A0D
:1014800080E00E942E0AC82F0E9421098C2FCF9144
:1014900008958F929F92AF92BF92CF92DF92EF9278
:1014A000FF920F931F93CF93DF93882E962E5A01AE
:1014B0000E9454026B017C0128E8C20E23E1D21E77
:1014C000E11CF11C10E000E0D0E0C0E098280E9490
:1014D00054026C197D098E099F0997FF1EC0692D62
:1014E00080EF0E940D0A0E9454026C197D098E093A
:1014F0009F0997FF09C088EC0E94350A87FFF3CF48
:1015000060E888EC0E940D0A88EF0E94350AC82F17
:10151000CF70C43081F0CE30B9F08C2FDF91CF91F5
:101520001F910F91FF90EF90DF90CF90BF90AF9001
:101530009F908F9008950F5F1F4FA114B10439F24F
:101540000A151B0521F6E9CFDF5FD33009F0BFCFC5
:10155000E4CF2F923F924F925F926F927F928F9241
:101560009F92AF92BF92CF92DF92EF92FF920F9332
:101570001F93CF93DF9300D000D01F92CDB7DEB77B
:101580009D838C834B017A016901FC0111818FEFEE
:10159000810F803408F0CBC00E9454022B013C0123
:1015A000F8E84F0EF3E15F1E611C711CEC81FD81B8
:1015B000828160E480FD60E888EE0E940D0A312C93
:1015C000812F90E09A838983E114F10409F48BC0A0
:1015D00009811A81E016F10608F487010B83A60140
:1015E000602F80E10E94E509602F88E30E940D0AC8
:1015F000EC81FD816081606280EF0E940D0A88ECC1
:101600000E94350A87FFFBCF60E888EC0E940D0A34
:1016100088EF0E94350A8F70382EB12CA12C212C16
:10162000332001F10E945402641975098609970953
:1016300097FF18C0F6E03F1609F440C02EE03216BE
:10164000B1F084E0381209C09FEFA91AB90A8114D9
:10165000910489F0A814B90471F460E088E30E9451
:101660000D0A43C0E01AF10AC00ED11EADCF23947B
:10167000E3E02E1691F360E088E30E940D0AF60184
:10168000608180E10E940D0A6B8188E30E940D0A4F
:10169000EC81FD816081606280EF0E940D0A88EC20
:1016A0000E94350A87FFFBCF60E888EC0E940D0A94
:1016B00088EF0E94350A8F70382EB2CF88EF0E94D3
:1016C000350A85FB882780F9F1E08F27EC81FD81C1
:1016D000928180FB90F9928360E490FD60E888EE4F
:1016E0000E940D0AC8CF3110B8CF88EF0E94350A8A
:1016F000EC81FD81928185FB90F99283832D0F907F
:101700000F900F900F900F90DF91CF911F910F913D
:10171000FF90EF90DF90CF90BF90AF909F908F9011
:101720007F906F905F904F903F902F9008958AED3B
:10173000382EE4CFAF92BF92CF92DF92EF92FF921A
:101740000F931F93CF93DF93EC01B62EA42E690164
:101750000E94D4067C0186EDE114F10409F447C02F
:10176000D701ED91FC91119787ED309709F43FC0B7
:1017700013969C9180E0981731F02081A21629F0F1
:1017800033968F5FF8CFF0E0E0E0D601ED93FC9365
:101790008BED309761F1228126952695203108F056
:1017A0002FE081E090E0A0E0B0E004C0880F991F36
:1017B000AA1FBB1F2A95D2F70197F8019183808356
:1017C0006B2D80EE0E940D0A88ED0E94350AD7012C
:1017D00014969C91682F697F992329F0CA58DF4F8E
:1017E00068816260682B88ED0E940D0A80E0DF91BD
:1017F000CF911F910F91FF90EF90DF90CF90BF900E
:10180000AF900895CF92DF92EF92FF920F931F93C4
:10181000CF93DF9300D000D0CDB7DEB77901680158
:101820001A8219821C821B828E010D5F1F4F9E013E
:101830002F5F3F4F0E949A0B811108C06B817C8102
:101840009601A70189819A810E94A90A0F900F90A1
:101850000F900F90DF91CF911F910F91FF90EF901C
:10186000DF90CF90089588EF0E94350A807C803405
:10187000B1F018F4882301F10895803819F0803C04
:10188000C9F0089588ED0E94350A81FD0DC069EC0C
:1018900088ED0E940D0A82E080936003089588ED30
:1018A0000E94350A81FDF3CF6BEC88ED0E940D0A92
:1018B00083E0F2CF81E0F0CF61ED88ED0E940D0A68
:1018C000109260030895CF92DF92FF920F931F93BF
:1018D000CF93DF93F62E01E0C82FD0E0CC0FDD1FB1
:1018E000C65AD94F6E0188819981DC01ED91FC9136
:1018F0000280F381E02D2F2D40E060E00995182F44
:10190000803E49F561E088EE0E940D0A66E670E0CF
:1019100080E090E00E942202F60180819181DC014A
:10192000ED91FC910190F081E02D2F2D40E060E0E1
:101930000995182F8D3041F58FEF800F833088F097
:1019400061E088EE0E940D0A66E670E080E090E0BB
:101950000E94220210C08D3061F48FEF800F83301F
:1019600050F464E670E080E090E00E9422020F5F95
:10197000BACF882389F2812FDF91CF911F910F91E8
:10198000FF90DF90CF9008958823A9F3D9CFFB0172
:1019900001900020E9F73197AF01461B570B0C94DB
:1019A0006002BC0181E693E00C94C70C2F923F9239
:1019B0004F925F926F927F928F929F92AF92BF925F
:1019C000CF92DF92EF92FF920F931F93CF93DF930B
:1019D0007B013A016901F901A080B180FB013180EE
:1019E000F90111821082FB01828160E181FD60E2D8
:1019F00088EE0E940D0A2A2CA301F701608180E085
:101A00000E94490A582EF6E08F1310C088EF0E94FA
:101A1000350AF70192819D7F84FF9260928360E195
:101A200091FD60E288EE0E940D0AE6CF811150C060
:101A300088EC0E94350A82FF5FC080E30E94350A6D
:101A4000482E8A151B0411F008F0422CF601808103
:101A50009181E501C81BD90BD7FF02C0D0E0C0E0DF
:101A6000842C912C8C169D060CF4E40180E591E009
:101A70000E94ED000E941F0988E00E942E0AAE011C
:101A800070E060E0C8010E94A322209721F0BE010F
:101A9000C8010E9443060C0F1D1F0E94210964E02B
:101AA00088EC0E940D0AF60180819181880E991EB2
:101AB00091828082431420F08A149B0408F49CCF06
:101AC00088EF0E94350AF701928184FB91F9928395
:101AD000852DDF91CF911F910F91FF90EF90DF90B7
:101AE000CF90BF90AF909F908F907F906F905F90BE
:101AF0004F903F902F90089580EF582EE9CFAF92EE
:101B0000BF92CF92DF92EF92FF920F931F93CF93EA
:101B1000DF9300D000D0CDB7DEB77C01690158015A
:101B20001C821B821A8219828E010F5F1F4F9E0139
:101B30002D5F3F4F0E949A0B811109C049815A8144
:101B40006B817C8185019601C7010E94D60C0F90A4
:101B50000F900F900F90DF91CF911F910F91FF90F9
:101B6000EF90DF90CF90BF90AF9008954F925F922B
:101B70006F927F928F929F92AF92BF92CF92DF929D
:101B8000EF92FF920F931F93CF93DF93CDB7DEB702
:101B9000C254D1090FB6F894DEBF0FBECDBFDC0131
:101BA00094962C9121111AC0612C862DCE5BDF4FAB
:101BB0000FB6F894DEBF0FBECDBFDF91CF911F915E
:101BC0000F91FF90EF90DF90CF90BF90AF909F90DC
:101BD0008F907F906F905F904F9008957C010E944E
:101BE0005402F701878C90A0A1A0B2A068197909CE
:101BF0008A099B0997FDD8CF0E945402D70193967A
:101C00002C91620F711D811D911DF701678F70A3CB
:101C100081A392A3712C6E01F1E4CF0ED11C30E4AC
:101C2000832E912C57018AE5A80EB11CD7015D9631
:101C30008C91781608F0B8CFE72DF0E07296EE0F91
:101C4000FF1FEE0FFF1FEE0DFF1D8081E82FF0E05C
:101C5000CF01880F991FDC01AE0FBF1FAE0DBF1D56
:101C600096962C9130E0D6012D933C93DE0111968F
:101C70002D011D92AC15BD05E1F7E80FF91FEE0D22
:101C8000FF1D8201960145A1F7016681848195813E
:101C90000E947F0D682E811188CFD6018D919C9175
:101CA00011978134910510F08D929C92D701ED919E
:101CB000FC9100A0F1A1E02D8201D6012C91D5016B
:101CC0004C91B701C7010995D701ED91FC910288AC
:101CD000F389E02DD5018C9181116980662DC701B2
:101CE0000995009769F0DC01ED91FC910190F0817C
:101CF000E02D8201D6012C91D5014C91B7010995B7
:101D0000739494CF3F924F925F926F927F928F9293
:101D10009F92AF92BF92CF92DF92EF92FF920F937A
:101D20001F93CF93DF93CDB7DEB7C254D1090FB65F
:101D3000F894DEBF0FBECDBFDC0194962C91222318
:101D400009F4A1C06C010E945402F601878C90A096
:101D5000A1A0B2A0681979098A099B0997FD93C0CF
:101D60000E945402D60193962C91620F711D811D21
:101D7000911DF601678F70A381A392A3312C5E01A0
:101D8000F1E4AF0EB11C46018AE5880E911CD60124
:101D90005D968C91381608F076C0E32DF0E07296CF
:101DA000EE0FFF1FEE0FFF1FEC0DFD1D6080662084
:101DB00009F467C0712C7301EE0CFF1CF701E60DEE
:101DC000F71DEC0DFD1D86A190E0F5019183808348
:101DD000FE0131962F011192EA15FB05E1F7F7019B
:101DE000E60DF71DEC0DFD1D8201950145A1D60103
:101DF00016966C91169714968D919C910E947F0D6A
:101E0000182F81113EC0F501808191810097C9F1A1
:101E10008134910520F080E490E091838083E60C8A
:101E2000F71CD601AE0DBF1DF60180819181FC012A
:101E3000608C718C7201F5010081F401208195960E
:101E40004C91B601C601F3010995D601ED91FC91C3
:101E50000288F389E02DD4018C9181111981612FC1
:101E6000C6010995009769F0DC01ED91FC910190A4
:101E7000F081E02D8201D5012C91D4014C91B60165
:101E80000995339484CF80E0CE5BDF4F0FB6F89492
:101E9000DEBF0FBECDBFDF91CF911F910F91FF909D
:101EA000EF90DF90CF90BF90AF909F908F907F90FA
:101EB0006F905F904F903F900895EF92FF920F9335
:101EC0001F93CF93DF9300D0CDB7DEB7FC012389FA
:101ED000222309F44BC07C018281811104C08481DA
:101EE000882309F44DC080E490E09A8389838701B8
:101EF000065D1F4F9E012F5F3F4FF70146856781AB
:101F0000858196810E947F0D0E945402F701048909
:101F1000158926893789601B710B820B930B6536F7
:101F200071058105910514F126A584A595A5B0E05C
:101F3000A22F808F918FA28FB38F448D558D668D88
:101F4000778D84179507A607B70781F040955095C0
:101F5000609570954823592362237B2340A351A3A6
:101F600062A373A3848F958FA68FB78F80E00F90A5
:101F70000F90DF91CF911F910F91FF90EF900895F7
:101F80008381882399F30E945402F70104891589FB
:101F900026893789601B710B820B930B613A7F4056
:101FA000810591051CF3870106591F4F27E030E09A
:101FB000F70143856781858196810E94020C0E940A
:101FC0005402F701648B758B868B978BCFCF2F9242
:101FD0003F924F925F926F927F928F929F92AF92B9
:101FE000BF92CF92DF92EF92FF920F931F93CF9306
:101FF000DF93CDB7DEB761970FB6F894DEBF0FBEA3
:10200000CDBF3C01D42E322E202EE98A4EA05FA0F7
:10201000E8A4F9A41E861D86188A1F868E01015F1A
:102020001F4F9E01235F3F4F0E949A0B182F811173
:102030007EC039822A8289898B83CC82BE82AD821E
:1020400098868F82AE014F5F5F4F68E080E20E940A
:10205000E5094F8558896D2D80E10E94490A182FA6
:10206000811165C0E114F10409F44DC0ED85FE85D0
:10207000828137FE4EC0826082835401CC24C39497
:10208000A114B10409F473C05C864B864F8558894E
:102090006D857E8587019E01255F3F4FC3010E94AC
:1020A000D60C182F863071F488EF0E94350AED8522
:1020B000FE8585FB882780F98C25928180FB91F92C
:1020C0009283DECF811133C0AAA5BBA5109799F0EA
:1020D0006B857C85ED91FC9111970190F081E02D4D
:1020E000C4018A199B099A8789879E01275F3F4F00
:1020F000A701CD0109958B859C85A81AB90A84157D
:10210000950508F0BDCF4F85588937FE2AC080EA73
:1021100029C0816082836F8578899701A201CF01F0
:102120000E94A90A182F4F8558898823D1F0812F42
:1021300061960FB6F894DEBF0FBECDBFDF91CF9191
:102140001F910F91FF90EF90DF90CF90BF90AF90D5
:102150009F908F907F906F905F904F903F902F90C7
:10216000089580E86D2D0E94490A182FE0CF1111C3
:10217000DECF4F855889CBCF8F929F92AF92BF927F
:10218000CF92EF920F93CF931F921F921F921F92A5
:102190001F921F92912C812CB12CA12CC12CE62EC8
:1021A00005E020E040E060E00E94E70FC82F6CE20D
:1021B00071E080E090E00E9422020F900F900F905B
:1021C0000F900F900F908C2FCF910F91EF90CF9099
:1021D000BF90AF909F908F9008958F929F92AF92F3
:1021E000BF92CF92EF920F931F921F923F932F9324
:1021F0005F934F934A01B12CA12CCC24C394E12CC2
:1022000006E020E840E00E94E70F0F900F900F904B
:102210000F900F900F900F91EF90CF90BF90AF90D5
:102220009F908F9008952F923F924F925F926F925E
:102230007F928F929F92AF92BF92CF92DF92EF9256
:10224000FF920F931F93CF93DF93CDB7DEB7C158A3
:10225000D1090FB6F894DEBF0FBECDBFDC011696D4
:102260003C913111F0C1B22E942EA62E3C01FC01FE
:10227000C480D580D601ED91FC910190F081E02DD4
:1022800060E0C60109952C010097E9F4F6EDFF2EF8
:102290008F2DCF57DF4F0FB6F894DEBF0FBECDBFE7
:1022A000DF91CF911F910F91FF90EF90DF90CF9032
:1022B000BF90AF909F908F907F906F905F904F9066
:1022C0003F902F900895FC01E080F180E114F1042B
:1022D00009F4BCC11301F5E22F0E311CDC0111968B
:1022E0003C922E921496BC929E0126593F4F48E094
:1022F00050E060E0F301848195810E94ED10182F79
:102300008111A7C1AB961FADAB97D201ED92FC92A4
:10231000D601ED91FC910280F381E02D292D40E062
:102320006A2DC6010995F301868394EDF92E882361
:1023300009F4AECFE2969FADE29796A3682F848111
:1023400095810E94BC10F82ED601ED91FC91D2012E
:1023500014961C92882359F00480F581E02DD30156
:1023600016966C91C6010995F301168291CF0190E2
:10237000F081E02DD30116966C91C6010995009766
:1023800009F484CFFC01B4821111BDC0E4968EAD76
:102390009FADE497F301E35AFF4F91838083E69664
:1023A0008EAD9FADE697329791838083EC96DFAC3C
:1023B000EC97910141E0D30116966C911697149613
:1023C0008D919C910E94EB06182F8111B1C02E01B6
:1023D000B1E44B0E511CF3013296C058DF4FF98324
:1023E000E883C058D040C2014096EE969FAF8EAFB2
:1023F000EE971D1509F4A8C084E091E0F2019183E5
:102400008083C058DF4FA881B981C058D040B383C2
:10241000A28314821186128615861786168610A24C
:1024200011A212A210A6EE968EAD9FADEE979683E6
:1024300085839087878394878387D30114960D9033
:10244000BC91A02DC258DF4FB983A883CE57D0408E
:10245000F301F6801F921F9281E090E08C0F9D1F88
:102460009F938F931F9299E09F9379E0872E912CF1
:10247000B12CA12CE2E0CE2EE12E06E020E840E0D7
:102480006F2DC258DF4F88819981CE57D0400E946E
:10249000E70F0F900F900F900F900F900F908111FA
:1024A00051C08B809C805F924F92A1E0B0E0AC0F56
:1024B000BD1FBF93AF93C401B1E48B16910410F01C
:1024C00080E490E09F938F93B12CA12C62E0C62E04
:1024D000E12E06E020E840E06F2DC258DF4F8881F2
:1024E0009981CE57D0400E94E70F0F900F900F9028
:1024F0000F900F900F90811125C0F301868D8230CF
:1025000018F51F5F76CF133108F012E1412F50E02C
:102510009E0126593F4FD30116966C91169714963B
:102520008D919C910E94ED10182F882309F42ECFD5
:10253000D301ED91FC910480F581E02DC301099553
:10254000F12EA6CE182FF4CFD3015E964C915E9754
:1025500081EDF82E423008F49BCE910116966C91D5
:10256000169714968D919C910E94EB061F921F92D4
:102570001F921F921F921F92912C812CB12CA12C83
:10258000C12CF301E48C09E020E040E06681848105
:1025900095810E94E70FF82E0F900F900F900F90EB
:1025A0000F900F9081114DC0D12CD3015D968C916D
:1025B0005D97D816D8F58D2D90E0FC017296EE0F40
:1025C000FF1FEE0FFF1FE60DF71D2081211102C036
:1025D000D394EBCFFC01EE0FFF1FEE0FFF1FE60DB4
:1025E000F71DEA5BFF4F80818770A82EB12C1F92E8
:1025F0001F921F921F921F921F92912C812CC12C0F
:10260000E12C0AE021E240E0F301668184819581BA
:102610000E94E70F182F0F900F900F900F900F90C0
:102620000F908823A9F2853099F282CFED91FC9129
:102630000688F789E02DC301099581E0F30184A3A1
:1026400027CE182F75CF39EDF32E22CE27EDF22E9F
:102650001FCEF201F182E0826BCF2F923F924F9218
:102660005F926F927F928F929F92AF92BF92CF9222
:10267000DF92EF92FF920F931F93CF93DF93CDB72B
:10268000DEB76D970FB6F894DEBF0FBECDBFDC018D
:1026900017963C91311131C2D22EC42EE62E3C0148
:1026A000FC0145805680D201ED91FC910190F081B2
:1026B000E02D60E0C20109958C010097E1F426ED60
:1026C000F22E8F2D6D960FB6F894DEBF0FBECDBFE4
:1026D000DF91CF911F910F91FF90EF90DF90CF90FE
:1026E000BF90AF909F908F907F906F905F904F9032
:1026F0003F902F900895FC012080318097EDF92EB6
:1027000021143104F1F25301F8E0AF0EB11CD801ED
:102710001196BC92AE921496DC929E012F5F3F4FB1
:1027200042E150E060E0F301858196810E94ED1066
:10273000F82ED8012D923C928111D6C189859A85B7
:102740008C34954009F0CEC12B843C84E8E62E16EB
:10275000E2E03E0659F0FFE22F16F4E03F0631F0CA
:1027600025ED221623E0320609F0BCC1D201ED911D
:10277000FC910280F381E02D2C2D40E06E2DC201F2
:102780000995F3018783882309F4BAC19885918755
:10279000682F858196810E94BC10F82ED201ED91A0
:1027A000FC91D80114961C92882359F00480F5817D
:1027B000E02DD30117966C91C2010995F3011782A0
:1027C00080CF0190F081E02DD30117966C91C2016A
:1027D0000995009709F473CFFC01D482950141E07B
:1027E000D30117966C91179715968D919C910E9425
:1027F000EB06F82E811178C192E0D92EF301D38631
:1028000090E4948784E0858711E016879787808B12
:10281000950143E06781858196810E94EB06F82E41
:10282000811162C168EC70E080E090E00E942202B9
:102830001F921F921F921F921F921F92912C812C08
:10284000B12CA12CC12CEE24E39409E020E0D301AB
:1028500018964C91189717966C91179715968D911D
:102860009C910E94E70FF82E0F900F900F900F9001
:102870000F900F90811138C1F301E659FF4F2F01DE
:10288000F8E62F16F2E03F0649F02FE2221624E088
:10289000320609F0BCC0F301148303C0D3011296C1
:1028A0001C9382E48B8B8CE08C8B1D8A1E8A1F927A
:1028B0001F92CE0143969F938F931F9284E08F9334
:1028C00014E0812E912CB12CA12C03E0C02E84EFBA
:1028D000E82E09E021E2D30118964C91189717963B
:1028E0006C91179715968D919C910E94E70FE3E7E5
:1028F000F0E0D201C30186569F4F0F900F900F90CA
:102900000F900F900F9024912D9331968A179B076B
:10291000D1F78FE7F30180AB81AB82AB83ABD301FF
:1029200094968C919497811119C095968C91959756
:10293000811114C096968C91969781110FC097962D
:102940008C91979781110AC098968C9198978111D4
:1029500005C099968C91882309F445C0A3014C5D6C
:102960005F4FF3018381B301665D7F4F882309F4D4
:1029700054C085E08B8B80E18A8F81E08B8F82E071
:102980008C8F82E18D8FDA01CE0144962D91FC016E
:102990002193CF016A177B07C9F71F921F92CE01BF
:1029A00043969F938F931F928BE08F93FBE08F2E24
:1029B000912CB12CA12CA3E0CA2EB5E0EB2E09E09E
:1029C00021E2D30118964C91189717966C9117979E
:1029D00015968D919C910E94E70F0F900F900F908C
:1029E0000F900F900F90D3015196ED91FC9152975B
:1029F0003097D1F1099581E0D30153968C930E94D1
:102A00005402F301648B758B868B978B5ACED3015E
:102A100013961C93F201D08282CF81E08B8B1C8AAB
:102A2000FB01CE0145962291DC012D93CD014E177D
:102A30005F07C9F71F921F92CE0143969F938F9312
:102A40001F9288E08F9368E0862E912CB12CA12CE8
:102A500073E0C72EE5EFEE2E09E021E2F301408599
:102A6000678185819681B7CFF301858196816781E2
:102A70002381222381F02FEFE459FF4F20833196E9
:102A8000108231961082820127E030E01B964C9133
:102A90000E94020CB0CFE9E6F0E0E491AD58BF4FE0
:102AA000EE0FEE712C91E22BEC931F921F925F922E
:102AB0004F921F9220E32F9340E3842E912CB12C50
:102AC000A12C52E0C52EEE24E39409E021E2F301AB
:102AD00040850E94E70F0F900F900F900F900F907E
:102AE0000F9089CF31EDF32ED301ED91FC9104804D
:102AF000F581E02DC3010995E4CD29EDF22EE1CD5C
:102B000084EDF82EDECDEF92FF920F931F93CF93BB
:102B1000DF93CDB7DEB7E0970FB6F894DEBF0FBEF8
:102B2000CDBF7C018B01FE0135968CE2DF011D9249
:102B30008A95E9F782E089838FEF8A8387EF8B8319
:102B4000FB0181818C8380818D8382818A87BE0194
:102B5000645F7F4FC70187599F4F0E940707BE01DF
:102B6000695E7F4FC7018F599F4F0E94070783E01F
:102B700088A7D80113968C91811135C082E08BA76C
:102B8000F80184818DA785818EA786818FA7878193
:102B900088AB1086F701E75BFF4FE0818E2F90E056
:102BA000FC01EE0FFF1FE80FF91FEE0DFF1D8E0158
:102BB0000F5F1F4F20E330E045A1D70116966C91BF
:102BC000169714968D919C910E94020CE0960FB678
:102BD000F894DEBF0FBECDBFDF91CF911F910F9153
:102BE000FF90EF90089581E0CACF8F5591090C9422
:102BF0008315EF92FF920F931F93CF93DF93CDB77F
:102C0000DEB7A0970FB6F894DEBF0FBECDBF7C0134
:102C1000FB01CE0103962EE1DC011D922A95E9F716
:102C200085E089838FEF8A8381818D8380818E8384
:102C300082818F83838188878481898785818A8740
:102C400086818B8717828E010F5F1F4F20E230E055
:102C5000F70143A56681848195810E94020CA096AC
:102C60000FB6F894DEBF0FBECDBFDF91CF911F919D
:102C70000F91FF90EF9008958F5591090C94F915DD
:102C80000E9495220F931F93CF93DF93FC01E35A89
:102C9000FF4F408151814C34554009F098C0329724
:102CA00040815181463E5C4009F091C0B801422FFD
:102CB000EC01223008F45AC00115110509F456C080
:102CC000F8018081813009F073C0CE018F589F4F89
:102CD0004150493208F048E250E06F5F7F4F0E9458
:102CE0009A22FE01E15AFF4F218D328D438D82AD34
:102CF00093ADA4AD281739074A0781F180959095C7
:102D0000A09582239323A42385AF96AFA7AF22AFCC
:102D100033AF44AF918D9F7081E0973019F09230BE
:102D200008F080E02FEF290F233008F482602DEFA8
:102D3000290F233008F484609550933008F488609C
:102D4000DE01A855BF4F9C91981741F090959823AC
:102D50009F7025AD207F922B95AF8C93FE01E75598
:102D6000FF4F80819181019691838083DE01A15A7A
:102D7000BF4FFE01E955FF4F808181110AC01996AE
:102D80008C911997811105C051968C915197882388
:102D9000F1F0BE0161567F4FED91FC9111970190CA
:102DA000F081E02DCD01DF91CF911F910F9109941A
:102DB000813369F4223059F0CE018F589F4F425031
:102DC000493208F048E250E06E5F7F4F88CFDF91D4
:102DD000CF911F910F910895CF92DF92EF920F93B1
:102DE0001F93CF93DF93FC01E35AFF4F4081518142
:102DF0004C34554009F096C0329740815181443C93
:102E0000A5E05A0721F04C3C594009F08BC0B801AD
:102E1000422FEC01223008F45CC00115110509F4C1
:102E200058C0F8018081813009F06DC0CE018F5902
:102E30009F4F41504D3308F04CE350E06F5F7F4FA0
:102E40000E949A229E01215A3F4FD9011696CD9099
:102E5000DD90EC90A901425C5F4FFA018081918185
:102E6000A281C816D906EA06A1F1339680959095FD
:102E7000A0958C219D21AE2180839183A283DA01CC
:102E8000CD92DD92EC92D90116969C919F7081E0D3
:102E9000973019F0923008F080E02FEF290F23309F
:102EA00008F482602DEF290F233008F484609550D8
:102EB000933008F48860DE01A555BF4F9C919817A8
:102EC00041F0909598239F702081207F922B9083D2
:102ED0008C93CE01815A9F4FFE01E655FF4F208112
:102EE000222301F1BE016D557F4FDC01ED91FC9174
:102EF0000190F081E02DDF91CF911F910F91EF9024
:102F0000DF90CF900994813169F4243058F0CE01DC
:102F10008F599F4F43504D3308F04CE350E06D5FA5
:102F20007F4F8ECFDF91CF911F910F91EF90DF9068
:102F3000CF9008951F920F920FB60F9211242F93E6
:102F40003F938F939F93AF93BF938091580390913A
:102F50005903A0915A03B0915B033091570323E0CA
:102F6000230F2D3758F50196A11DB11D209357034E
:102F70008093580390935903A0935A03B0935B0333
:102F800080915C0390915D03A0915E03B0915F031B
:102F90000196A11DB11D80935C0390935D03A093E6
:102FA0005E03B0935F03BF91AF919F918F913F916B
:102FB0002F910F900FBE0F901F90189526E8230FAA
:102FC0000296A11DB11DD2CF1F920F920FB60F9284
:102FD00011242F933F934F935F936F937F938F931E
:102FE0009F93AF93BF93EF93FF9381E693E00E948B
:102FF000DE02FF91EF91BF91AF919F918F917F91F1
:103000006F915F914F913F912F910F900FBE0F9055
:103010001F9018951F920F920FB60F9211242F93A5
:103020008F939F93EF93FF93E0917103F09172035D
:103030008081E0917703F091780382FD1BC090813D
:1030400080917A038F5F8F7320917B03821741F009
:10305000E0917A03F0E0EF59FC4F958F80937A036B
:10306000FF91EF919F918F912F910F900FBE0F9035
:103070001F9018958081F4CF1F920F920FB60F9278
:1030800011242F933F934F935F936F937F938F936D
:103090009F93AF93BF93EF93FF93E0913603F0912B
:1030A0003703309749F0A685B7858585968D91FFC2
:1030B00014C09C918923A1F4FF91EF91BF91AF912E
:1030C0009F918F917F916F915F914F913F912F9140
:1030D0000F900FBE0F901F9018959C91892361F758
:1030E000A389B4899C918589809589238C9386894D
:1030F00097890197F1F7608D718DA685B785558504
:1031000038E020E0CB010197F1F7822F90E0959510
:103110008795282F4C91452309F02068315091F76D
:10312000868D81FD20958091350390E001968F7307
:10313000992730913403381799F0A0913503B0E006
:10314000AC50BD4F2C9380933503828D938D0197A6
:10315000F1F7A389B4898C919589892B8C93ACCF95
:10316000868D8160868FF1CF6F927F928F929F9232
:10317000AF92BF92CF92DF92EF92FF920F931F9385
:10318000CF93DF93EC01842F6C8F4D8D70E060E066
:10319000A82EB12C822E912C602E712C641770F504
:1031A0006530710559F1DB01AA0FBB1FAA0FBB1FC8
:1031B000FE01EA0FFB1FEA5BFF4F9081392F37704A
:1031C0003A151B0409F087C0392F36953695369588
:1031D00037703815190409F07EC09295969596952A
:1031E00093709615170409F076C06E0196E4C90E27
:1031F000D11CCA0EDB1EC114D104F9F4453008F00D
:103200005BC0A4E04A9FA00111246E01B6E4CB0E7E
:10321000D11CC40ED51E2770220F220F220F982F0B
:103220009770292B902F9295990F990F907C292BAD
:10323000F60120839D8D9F5F9D8FD70113969C91F2
:103240001397937010E0933029F412969C9112E03A
:1032500097FD11E0402F682FE881F981068CF78DEA
:10326000E02DCE010995882339F1112329F18E8DA6
:103270008B3010F5282F30E0F901EE0FFF1FE20F21
:10328000F31FEC0FFD1FD70112969C9112979F70B0
:1032900095A314969C91149796A394E097A3C10EBE
:1032A000D11CF601818316968C919BA1981708F486
:1032B0008BA38E8D8F5F8E8FDF91CF911F910F919A
:1032C000FF90EF90DF90CF90BF90AF909F908F9046
:1032D0007F906F9008956F5F7F4F60CFEF92FF9266
:1032E0000F9302970E94B4180F91FF90EF900895EA
:1032F0000F931F93CF93DF93109264031092630395
:1033000088EE93E0A0E0B0E08093650390936603BD
:10331000A0936703B093680324E331E03093620322
:103320002093610325EC30E030936E0320936D030E
:1033300024EC30E03093700320936F0320EC30E0F6
:10334000309372032093710321EC30E030937403C7
:103350002093730322EC30E03093760320937503BF
:1033600026EC30E0309378032093770310927A03B1
:1033700010927B0310927C0310927D0310927E06C4
:1033800010927D0680937F0690938006A09381061D
:10339000B093820682E092E090937C0680937B0655
:1033A0001092920610929106109294061092930633
:1033B0001092960610929506109298061092970613
:1033C000609199066E7F6D7F609399066695617036
:1033D00081E0682786E00E94800161E086E00E942B
:1033E000CC01E3E7F1E0E491E0938B06EFE5F1E057
:1033F000E491F0E0EE0FFF1FE15BFE4F85919491A9
:1034000090938D0680938C0660E087E00E94CC014B
:103410008091990681FD04C061E087E00E948001EF
:1034200087E080938706E4E7F1E0E491E093880683
:10343000E0E6F1E0E491F0E0EE0FFF1FEB5BFE4F02
:103440008591949190938A068093890688EF91E004
:10345000909305068093040610920C0681E08093F9
:103460000D0610920E0686E096E090930B06809370
:103470000A061092060688E0809307068CE3809384
:10348000080610920906E4E0F6E08FE496E041E0D9
:1034900026E036E0158646871786348723873596DB
:1034A0008E179F07B9F710927A0681E18093FE0389
:1034B00080EE91E090935B0580935A0584E096E05E
:1034C0009093600580935F0510926D0510926105E1
:1034D0001092620588E0809363058CE38093640515
:1034E000109265051092660584E08093670510923E
:1034F00068051092690580936A05EAE5F6E090E0B8
:1035000080E021913191232B09F087C0880F991F0A
:10351000FC01E65AF94F8AE595E091838083109289
:1035200083051092820510928105109280051092F9
:103530007F0510927E058CEA94E00E94F00000E87E
:1035400011E01093AD040093AC04C6EAD1E0D0932F
:10355000AF04C093AE048AE791E090930C0580938A
:103560000B058BE095E00E947D078CEA91E090933B
:10357000AD048093AC0484ED91E09093AF0480930C
:10358000AE048AED91E090930C0580930B058BE0DF
:1035900095E00E947D078FEF93E00E94F00010936A
:1035A00000040093FF03D0930204C09301048AE750
:1035B00091E090935F0480935E0488E0E0E6F4E09D
:1035C000DF01982F1D929A95E9F7E8E6F4E0DF0114
:1035D0001D928A95E9F71092A9041092A8048EE52D
:1035E00094E00E94470786E491E090930004809362
:1035F000FF038EE691E0909302048093010484E738
:1036000091E090935F0480935E048EE594E0DF91F7
:10361000CF911F910F910C9447070196803191052E
:1036200009F06FCF7CCFCF93DF93CDB7DEB7CB540C
:10363000D1090FB6F894DEBF0FBECDBF789484B524
:10364000826084BD84B5816084BD85B5826085BD9E
:1036500085B5816085BD80916E00816080936E002C
:10366000109281008091810082608093810080911E
:1036700081008160809381008091800081608093CF
:1036800080008091B10084608093B1008091B0008F
:1036900081608093B00080917A00846080937A008A
:1036A00080917A00826080937A0080917A008160B4
:1036B00080937A0080917A00806880937A001092DB
:1036C000C100E0917103F091720382E08083E09188
:1036D0006D03F0916E031082E0916F03F09170031F
:1036E00083E3808310927903E0917503F091760370
:1036F00086E08083E0917303F091740380818061A0
:103700008083E0917303F0917403808188608083EB
:10371000E0917303F0917403808180688083E0916D
:103720007303F091740380818F7D808310929606DD
:10373000109295061092940610929306109292069B
:103740001092910685E690E09093980680939706F4
:1037500090918706963108F047C021E230E030931F
:1037600092062093910623E630E03093940620934E
:10377000930622E430E0309396062093950620913C
:10378000680084E0983048F031E09E3008F430E082
:1037900081E001C0880F3A95EAF7822B8093680098
:1037A0002DE630E0983050F02BE630E09E3030F0DF
:1037B0002CE630E0963110F030E020E030938F06B8
:1037C00020938E06292F30E0983008F0FFC081E06A
:1037D00001C0880F9A95EAF780939006809197062A
:1037E000909198060197F1F7809195069091960631
:1037F000892B49F1E0913603F091370306E0EB376E
:10380000F00709F1309739F0A389B4899C91858933
:10381000809589238C93809199068E7F8093990659
:1038200010923503109234038BE796E090933703A0
:1038300080933603E0918E06F0918F0680819091FF
:103840009006892B8083229A0E9421091FB7F89441
:1038500080913803811127C0E3E6F1E08491E7E726
:10386000F1E09491E82FF0E0EE0FFF1FEA54FF4FD4
:10387000A591B491EC91E92321F461E08AE00E94E2
:10388000800161E08AE00E94CC018CB580618CBD32
:103890008CB580648CBD61E08DE00E94CC0161E05C
:1038A0008BE00E94CC01809138038F5F80933803B6
:1038B0001FBF229A0E942109219868E188E80E948E
:1038C0000D0A60E288E70E940D0A60E088E70E9426
:1038D0000D0A10E000E088E60E94350A0F5F1F4FD6
:1038E00080FF81C061EC88ED0E940D0A60E680EDEA
:1038F0000E940D0A64E088EE0E940D0A88EE0E9484
:10390000350A82FFFBCF0E94330C60E288EC0E94F4
:103910000D0A61E080E80E940D0ACE010896269605
:103920009FAF8EAF269710923D0310923E031092E8
:1039300040031092410310923F03109242031092F1
:1039400043031092440310924503109246031092D1
:103950004703109248031092490310924A031092B1
:103960004B0310924C0310924D0310924E03109291
:103970004F03109250031092510310925203109271
:10398000530310925403109255031092560383B1BF
:10399000182F127081FD0CC088EC0E94350A85FF3B
:1039A00003C00E94330C10E2612F88EC0E940D0AC4
:1039B00080916003813009F46EC008F470C08230D9
:1039C000B9F0833009F475C010E029C09E3040F48E
:1039D0002850310981E001C0880F2A95EAF7FCCE12
:1039E0002E503109F7CF0F3F100709F074CFFFCFEA
:1039F00010E08091FE03807F803189F40E945402A0
:103A000068537F4F8F4F9F4F6093390370933A03F2
:103A100080933B0390933C03B0E2B093FE039AE59E
:103A2000692E96E0792E7301F701819191917F01C2
:103A3000009739F0DC01ED91FC910680F781E02DD3
:103A40000995EAE7F6E0EE15FF0571F78091FE03B0
:103A5000803409F465C078F5803209F44BC08033B6
:103A600009F458C0813109F06BC010927A06D30175
:103A70008D919D913D01009739F0DC01ED91FC9114
:103A80000480F581E02D0995E614F70481F782E1C1
:103A90008093FE0355C093E19093FE0395CF8091F0
:103AA000FE03807F803109F48FCFA1E1A093FE0354
:103AB0008BCF11E09ECF813509F487C2803809F49D
:103AC00097C28035E9F588EC0E94350A86FF38C038
:103AD00081E58093FE030E9454026C5E7F4F8F4FFE
:103AE0009F4F6093390370933A0380933B03909305
:103AF0003C0326C00E9454020091390310913A03FE
:103B000020913B0330913C03601B710B820B930BA4
:103B100097FD16C061E088EE0E940D0A80E4B8CFE0
:103B200088EE0E94350A80FD0BC088ED0E94350AA0
:103B3000682F686088ED0E940D0AB0E5B093FE031F
:103B400080915C05811105C080915E05882309F490
:103B50004BC380918A0580933D0380918B058093B0
:103B60003E0380918C058093400380918D05809366
:103B700041038EE090E00E94EA07833108F030C3F1
:103B8000E82F880FFF0BED55FF4FE491F0E0E65A68
:103B9000FA4F81A180933F038FE090E00E94EA07F3
:103BA000833108F01FC3E82F880FFF0BED55FF4F3F
:103BB000E491F0E0E65AFA4F81A18093420384E059
:103BC00090E00E94B6088093430385E090E00E9455
:103BD000B6088093440386E090E00E94B608809384
:103BE000450387E090E00E94B6088093460390E08A
:103BF00080E00E94B6088093470381E090E00E9435
:103C0000B6088093480382E090E00E94B608809353
:103C1000490383E090E00E94B60880934A038CE059
:103C200090E00E94B60880934B038AE090E00E94E7
:103C3000B60880934C038DE090E00E94B608809314
:103C40004D038BE090E00E94B60880934E0380E124
:103C500090E00E94B60880934F0388E090E00E94B5
:103C6000B6088093500389E090E00E94B6088093E4
:103C70005103A0903D03B0903E03C0904003E090FC
:103C8000410300914203E091430390914403A091CA
:103C90004503D0904603F090470310914803B0913C
:103CA0004903F0914A0370914B0380914C0360905B
:103CB0004D0360914E0350914F032091500330917A
:103CC000510380905203909053037090550340919C
:103CD00056031986A982BA82CB82EC827D830E8339
:103CE000990F04E0A09F500111249A29E92B98E034
:103CF000D99E60011124EC29A0E1FA9E70011124E3
:103D0000EE2AE0E21E9F80011124E02A00E4B09F29
:103D1000D0011124AE2990E8F99FF0011124AE2BB7
:103D2000AF83880FA4E06A9EF00111248E2BA82F88
:103D3000A72BB8E06B9FB00111246A2BE0E45E9FD3
:103D4000D0011124A62BF0E84F9FA0011124A42B31
:103D5000372900E2309FA0011124A42B2829922AA0
:103D600060E1969E900111249A2E922A9886CE01A7
:103D700001967C01FC016C0191918985890F8987ED
:103D80002696AEADBFAD2697AE17BF07A9F76FEA6F
:103D90008BE796E00E9486038701075F1F4FF701BC
:103DA00061917F018BE796E00E9486030E151F0547
:103DB000B1F76DEE8BE796E00E9486036DE08BE72E
:103DC00096E00E9486036AE08BE796E00E948603F5
:103DD00068E070E080E090E00E94220280913D0364
:103DE00090913E0340913F03209140033091410365
:103DF0005091420320904303309044034090450388
:103E00005090460360904703709048030091490327
:103E10002C960FAF2C9700914A0328960FAF289746
:103E200000914B0329960FAF299780904C03009186
:103E30004D0327960FAF279790904E03A0904F0306
:103E4000B0905003009151032A960FAF2A9700912A
:103E500052032B960FAF2B97E0905303F09054032F
:103E6000009155031091560360E4D6011D926A95A6
:103E7000E9F71F925F931F924F931F923F931F92F8
:103E80002F931F929F931F928F93ECE2F2E0FF9388
:103E9000EF93DF92CF920E94AA22C6010E94D10C1A
:103EA00088E592E00E94D10C0FB6F894DEBF0FBEF9
:103EB000CDBF222021F08AE692E00E94D10C33206F
:103EC00021F084E792E00E94D10C442021F08CE79D
:103ED00092E00E94D10C552021F083E892E00E94EC
:103EE000D10C662021F08BE892E00E94D10C772063
:103EF00021F08FE892E00E94D10C2C969FAD2C9778
:103F0000992321F086E992E00E94D10C2896AFAD6A
:103F10002897AA2321F08CE992E00E94D10C2996DF
:103F2000BFAD2997BB2321F082EA92E00E94D10C19
:103F3000882021F086EA92E00E94D10C2796EFAD0E
:103F40002797EE2321F08AEA92E00E94D10C992073
:103F500021F08EEA92E00E94D10CAA2021F082EB9F
:103F600092E00E94D10CBB2021F086EB92E00E94EF
:103F7000D10C2A96FFAD2A97FF2321F08EEB92E019
:103F80000E94D10C2B962FAD2B97222321F085EC8C
:103F900092E00E94D10CEE2021F08CEC92E00E9485
:103FA000D10CFF2021F084ED92E00E94D10C00237F
:103FB00021F080EE92E00E94D10C112309F434C16B
:103FC00089EE92E00E94D10C2FC10E945402C09051
:103FD0003903D0903A03E0903B03F0903C036C1916
:103FE0007D098E099F0997FDABCD80E88093FE0384
:103FF00022961FAE2297E8E02396EFAF2397FCE3CB
:104000002496FFAF2497E0900A06F0900B0681E417
:1040100090E08C0F9D1F90930B0680930A061093DF
:104020000E069E012F5F3F4F42E150E060E084E0CA
:1040300096E00E94ED10082FF0920B06E0920A061F
:1040400081114BC0A984BA848B849C845D804E808E
:104050008AE5C82E86E0D82E312CD6018D919D910F
:104060006D010097E1F53394B0E13B12F6CFF30117
:10407000819191913F01009709F074C00F5F003169
:10408000B1F780910A0690910B06892B09F45AC06A
:1040900010930E0620E040E060E084E096E00E948D
:1040A0007F06F82E882309F44DC0682F84E096E03F
:1040B0000E94D406009709F445C0FC0114836F2DBB
:1040C00084E096E00E94BC10082F882309F486C083
:1040D0006F2D84E096E00E945D06802F30C0DC01E9
:1040E000ED91FC910084F185E02D09958111BBCF04
:1040F000F601929182917F01DC01ED91FC910088A3
:10410000F189E02D642D0995882309F4ACCFF701DE
:1041100080819181DC01ED91FC910484F585E02D95
:10412000A401B5010995882379F0612F832D0E94A0
:10413000630C813D09F497CF882309F44FC0823D79
:1041400009F4FECC80EAA4CCF70180819181DC01E6
:10415000ED91FC910684F785E02D652D099581117F
:10416000E4CF81CFDC01ED91FC910084F185E02D5D
:104170000995811183CFF301929182917F01DC0136
:10418000ED91FC910088F189E02D642D0995811154
:1041900009C0612F802F0E94630C982F977F913D5B
:1041A00059F66CCFF70180819181DC01ED91FC9192
:1041B0000484F585E02DA401B501099581115ECF38
:1041C000F70180819181DC01ED91FC910684F785F6
:1041D000E02D652D09958823E1F250CF80E958CC78
:1041E00080E0D8CC80E0E9CC8091D004882391F0A5
:1041F0008091090590910A058C34954059F480917D
:10420000070590910805843C05E0900701F18C3C7E
:104210009940E9F0809123048111B4C060E172E01B
:1042200081E693E00E94C70C69E272E081E693E0C8
:104230000E94C70C80E090E0892B09F474CB0E94A7
:10424000CA02882309F46FCB0E9400006CCB8091D6
:104250000D0580933D0380910E0580933E03809170
:104260000F058093400380911005809341038EE0F9
:1042700090E00E94EA07823108F07BC0883009F0A4
:1042800073C08091140580933F038FE090E00E94FB
:10429000EA07823108F074C0883009F06CC0809160
:1042A00014058093420384E090E00E94D808809334
:1042B000430385E090E00E94D8088093440386E0A1
:1042C00090E00E94D8088093450387E090E00E9428
:1042D000D8088093460390E080E00E94D80880933D
:1042E000470381E090E00E94D8088093480382E071
:1042F00090E00E94D8088093490383E090E00E94F8
:10430000D80880934A038CE090E00E94D8088093FC
:104310004B038AE090E00E94D80880934C038DE024
:1043200090E00E94D80880934D038BE090E00E94BB
:10433000D80880934E0380E190E00E94D8088093D3
:104340004F0388E190E00E94D8088093520389E1EE
:1043500090E00E94D808809355038AE190E00E9483
:10436000D8088093560385CC893019F480911505BF
:104370008ACF80E088CF893019F48091150591CFDC
:1043800080E08FCF80915C0490915D048C349540E7
:1043900009F044CF80915A0490915B04863E9C4082
:1043A00009F03CCF8091700480933D0380917104AB
:1043B00080933E0380917204809340038091730444
:1043C000809341038EE090E00E94EA07833110F071
:1043D00080E005C0883009F079C080917404809332
:1043E0003F038FE090E00E94EA07833108F079C034
:1043F000883009F071C0809174048093420384E096
:1044000090E00E946F088093430385E090E00E9453
:104410006F088093440386E090E00E946F088093C9
:10442000450387E090E00E946F088093460390E088
:1044300080E00E946F088093470381E090E00E9433
:104440006F088093480382E090E00E946F08809399
:10445000490383E090E00E946F0880934A038CE058
:1044600090E00E946F0880934B038AE090E00E94E6
:104470006F0880934C038DE090E00E946F0880935A
:104480004D038BE090E00E946F0880934E0380E123
:1044900090E00E946F0880934F038BE190E00E94B0
:1044A0006F088093530389E190E00E946F08809326
:1044B00055038AE190E00E946F08809356038CE1D7
:1044C00090E00E946F0880935403D3CB893009F0A9
:1044D0007FCF8091750483CF893019F48091750462
:1044E0008CCF80E08ACF82E092E090937C0680932C
:1044F0007B0680913603909137038B57964071F479
:10450000E0918E06F0918F069081809190068095C3
:104510008923808310923703109236030895EE0F9B
:10452000FF1F0590F491E02D099481E090E0F8944C
:104530000C948225FB01DC0102C001900D924150D8
:104540005040D8F70895DC0101C06D9341505040B0
:10455000E0F70895AEE0B0E0E0EBF2E20C9459250C
:104560000D891E8986E08C831A8309838FEF9FE76C
:104570009E838D83AE01475E5F4F6F89788DCE013C
:1045800001960E94CD222F813885020F131FF8015A
:1045900010822E96E4E00C947525ABE0B0E0E3EDDC
:1045A000F2E20C944B257C013B018A01FC0117824D
:1045B0001682838181FFC8C1CE0101965C01F7019B
:1045C0009381F30193FD859193FF81913F018823AE
:1045D00009F453C1853239F493FD859193FF81919C
:1045E0003F01853229F4B70190E00E94BD24E7CF56
:1045F000912C212C312CFFE1F31538F08B3211F185
:1046000090F4803209F1833229F137FC3CC020ED6F
:10461000280F2A3050F536FE20C08AE0989E200DE3
:104620001124922E06C08D3291F0803371F7689478
:1046300030F8F30193FD859193FF81913F01811142
:10464000DACF21C0689431F8689432F8F2CF6894D8
:1046500033F8EFCF689434F8ECCFEAE02E9E200DCB
:104660001124222E689435F8E4CF8E3229F436FCDA
:1046700004C1689436F8DDCF8C3619F4689437F8A5
:10468000D8CF8836B1F2982F9F7D95549330E0F0C3
:104690008336A1F18337C1F1833509F063C0280166
:1046A000F2E04F0E511CF801C080D180692D70E0FE
:1046B00036FC02C06FEF7FEFC6010E94A7244C01B9
:1046C000689437F882010AC00C5F1F4FFFE3F9833B
:1046D00088248394912C6501E89437F833FE2DC02B
:1046E000522C8114910471F5552009F468CFB7015B
:1046F00080E290E00E94BD245A94F6CFF8018081B8
:1047000089830E5F1F4FE4CF2801F2E04F0E511C4A
:10471000F801C080D180692D70E036FC02C06FEFD7
:104720007FEFC6010E94B2244C018201D5CFB701B0
:1047300080E290E00E94BD242A942814190409F014
:10474000B0F7CECFF60137FC859137FE81916F012E
:10475000B70190E00E94BD2451105A94F1E08F1AE5
:104760009108BFCF843619F0893609F077C0F80177
:1047700037FE6BC060817181828193810C5F1F4F16
:10478000F32DFF763F2E97FF09C090958095709589
:1047900061957F4F8F4F9F4F689437F82AE030E044
:1047A000A5010E94ED24C82ECA188C2C432C36FE7D
:1047B0000CC0E89440F8C91440F434FE05C032FC43
:1047C00003C0F32DFE7E4F2E892C44FE95C0FE01C2
:1047D000EC0DF11D8081803309F087C0242D297EE6
:1047E000422E842D8870582E43FC95C040FE8FC009
:1047F0009C2C821418F42C0C922C981844FE91C016
:10480000B70180E390E00E94BD2442FE09C088E722
:1048100090E041FE02C088E590E0B7010E94BD240F
:10482000C91408F48AC0CA94D12C9FEFC91AD90AB6
:10483000CA0CDB1CF60182916F01B70190E00E9467
:10484000BD24AC14BD04B1F74FCF60817181072E38
:10485000000C880B990B0E5F1F4F92CFD32CE8945E
:10486000D4F82AE030E0853739F1232D297FD22E84
:104870008F3601F148F48835A9F0F70186819781D8
:104880002B96E2E10C946725803749F08837A9F729
:10489000D4FE02C06894D2F820E130E00DC06894E4
:1048A000D4F8F6CF34FE03C0822F8660D82E20E1E4
:1048B00032E002C028E030E0F801D7FE0FC060818E
:1048C0007181828193810C5F1F4FA5010E94ED24AD
:1048D000C82ECA183D2CE89437F867CF60817181E3
:1048E00090E080E00E5F1F4FF0CF42FC02C0839447
:1048F00078CF8394839475CF842D867809F471CF13
:10490000F6CFB70180E290E00E94BD248394821428
:10491000C0F3512C73CF522C5818821408F46ECF68
:10492000F8CF842D867809F47BCF8BE241FE80E2BC
:1049300047FC8DE2B70190E071CFB70180E390E0D2
:104940000E94BD249A946CCF8FEF9FEF99CFFC010A
:104950000590615070400110D8F7809590958E0FAA
:104960009F1F0895FC016150704001900110D8F71D
:10497000809590958E0F9F1F08950F931F93CF934F
:10498000DF93182F092FEB018B8181FD09C01FEFE9
:104990000FEF812F902FDF91CF911F910F910895ED
:1049A00082FF14C02E813F818C819D812817390799
:1049B0003CF4E881F981CF010196998388831083C3
:1049C0008E819F8101969F838E83E3CFE885F98551
:1049D000812F0995892BA1F3DACFFA01AA27283074
:1049E00051F1203181F1E8946F936E7F6E5F7F4FBC
:1049F0008F4F9F4FAF4FB1E03ED0B4E03CD0670F38
:104A0000781F891F9A1FA11D680F791F8A1F911D8A
:104A1000A11D6A0F711D811D911DA11D20D009F4DA
:104A200068943F912AE0269F11243019305D31931C
:104A3000DEF6CF010895462F4770405D4193B3E005
:104A40000FD0C9F7F6CF462F4F70405D4A3318F0AC
:104A5000495D31FD4052419302D0A9F7EACFB4E05D
:104A6000A6959795879577956795BA95C9F7009715
:104A70006105710508959B01AC010A2E06945795B6
:104A8000479537952795BA95C9F7620F731F841F0D
:104A9000951FA01D08952F923F924F925F926F92A3
:104AA0007F928F929F92AF92BF92CF92DF92EF92BE
:104AB000FF920F931F93CF93DF93CDB7DEB7CA1B3F
:104AC000DB0B0FB6F894DEBF0FBECDBF09942A886A
:104AD000398848885F846E847D848C849B84AA8412
:104AE000B984C884DF80EE80FD800C811B81AA819F
:104AF000B981CE0FD11D0FB6F894DEBF0FBECDBF6A
:104B0000ED01089510E0C2ECD0E004C0FE010E9467
:0E4B10008F222196C33CD107C9F7F894FFCF3E
:104B1E00000000005704000000001311E209980580
:104B2E00820ED609E109DF09DD09DB09B105CF05E2
:104B3E00D909F005D309B4184016FEFF00006E190E
:104B4E0000000000000360028D024D03BE029C02B5
:104B5E00B002000000001311E2099805B60DD60947
:104B6E00E1092309DD09DB09B105CF052C09BE09D1
:104B7E00D309A309D10942168315FEFF0000B3091C
:104B8E00A1FF0000F5150000000040160000000017
:104B9E001311E2099805B60DD609E109DF09DD0901
:104BAE00DB09B105CF05D909BE09D309A309D1097E
:104BBE00BD09FEFF0000B309000000001311E20959
:104BCE009805B60DD609E1095C09DD09DB09B105C9
:104BDE00CF056F09BE09D309A309D109EC16F91542
:104BEE00FEFF0000B309A1FF00003C16000000000C
:104BFE002D13E209BB075D0FE707E109D107DD09B8
:104C0E00DB09E40700000000D4067F065D06000005
:104C1E0000008603600219048503E203F8036D03A6
:104C2E00676574436F6E74726F6C6C65722077611A
:104C3E0073206661696C6564000D0A00204C583A59
:104C4E00253364204C593A2533642052583A253383
:104C5E00642052593A253364204C323A253364206D
:104C6E0052323A25336420005072657373656420A6
:104C7E00427574746F6E203A2000545249414E476B
:104C8E004C452000434952434C45200043524F535C
:104C9E00532000535155415245200055502000528B
:104CAE00494748542000444F574E20004C45465427
:104CBE0020004C3120004C33200052312000523362
:104CCE0020005053200053454C454354200053546C
:104CDE004152542000534841524520004352454111
:104CEE00544520004D4943524F50484F4E452000E9
:104CFE004F5054494F4E532000544F554348504146
:044D0E00442000003D
:00000001FF
